:020000040800F2
:10000000F0E100209D01000899160008FB1400088B
:10001000E5150008810200082F1F000800000000FD
:10002000000000000000000000000000AF01000818
:100030007504000800000000B3010008751A0008EC
:10004000B7010008B7010008B7010008B7010008B0
:10005000B7010008B7010008B7010008B7010008A0
:10006000B7010008B7010008B7010008B701000890
:10007000B7010008B7010008B7010008B701000880
:10008000B7010008B7010008B7010008B701000870
:10009000B7010008B7010008B7010008B701000860
:1000A000B7010008B7010008B7010008B701000850
:1000B000B7010008B7010008B7010008B701000840
:1000C000B7010008B7010008B7010008B701000830
:1000D000B7010008B7010008091C0008B7010008B3
:1000E000A5110008B7010008B7010008B701000812
:1000F000B7010008B7010008B7010008B701000800
:10010000B7010008B7010008B7010008B7010008EF
:10011000B7010008B7010008B7010008B7010008DF
:10012000B7010008B7010008B7010008B7010008CF
:10013000B7010008B7010008B7010008B7010008BF
:10014000B7010008B7010008B7010008B7010008AF
:10015000B7010008B7010008B7010008B70100089F
:10016000B7010008B7010008B7010008B70100088F
:10017000B7010008B7010008B7010008B70100087F
:10018000B7010008B7010008DFF80CD000F066F8EE
:1001900000480047353E0008F0E10020064880474F
:1001A00006480047FEE7FEE7FEE7FEE7FEE7FEE75C
:1001B000FEE7FEE7FEE7FEE77D1A0008890100087A
:1001C00040EA01039B0703D009E008C9121F08C0D9
:1001D000042AFAD203E011F8013B00F8013B521E59
:1001E000F9D27047D2B201E000F8012B491EFBD2D0
:1001F00070470022F6E710B513460A460446194632
:10020000FFF7F0FF204610BD421C10F8011B00292B
:10021000FBD1801A704730B504460020034600E049
:100220005B1C934203D2E05CCD5C401BF8D030BD38
:1002300030B50B46014600202022012409E021FAB6
:1002400002F59D4205D303FA02F5491B04FA02F5B3
:100250002844151EA2F10102F1DC30BD064C074D09
:1002600006E0E06840F0010394E807009847103486
:10027000AC42F6D3FFF78CFF3071000850710008D4
:1002800000BFFEE7002341F64C521352921C13525A
:10029000921C1152704721B1026842F001020260C3
:1002A00003E0026822F0010202607047016821F059
:1002B000010101600021016041608160C160016154
:1002C000212141614A49884204D13D21484A103ADE
:1002D00091608CE046491831884205D14FF4746131
:1002E000434A103A916082E041493031884205D159
:1002F0004FF474113E4A103A916078E03C4948311D
:10030000884205D14FF07461394A103A91606EE02D
:1003100037496031884204D13649354A103AD160B4
:1003200065E033497831884204D13349304A103A84
:10033000D1605CE02E499031884204D12F492C4A8B
:10034000103AD16053E02A49A831884205D14FF0D4
:100350003D51274A103AD16049E02949884204D1E9
:100360003D21274A083A116041E025491831884269
:1003700005D14FF47461224A083A116037E02049F0
:100380003031884205D14FF474111D4A083A11608A
:100390002DE01B494831884205D14FF07461184A5D
:1003A000083A116023E016496031884204D11149AE
:1003B000134A121F11601AE011497831884204D1A2
:1003C0000D490F4A121F116011E00D49903188420A
:1003D00004D10A490A4A121F116008E00849A831ED
:1003E000884204D14FF03D51054A121F11607047F9
:1003F000106002403D000020400F002000003D2022
:1004000010640240014600200A6802F001020AB1AD
:10041000012000E00020704710B500220268134B55
:100420001A40CC680B6823434C6923438C692343EF
:10043000CC6923430C6A23434C6A23438C6A2343CD
:100440004C6B23438C6B23431A430260426922F0B6
:100450000702D1E90B3423431A4342610B6943601D
:100460004B6883608B68C36010BD00003F801CF048
:100470004160704770470000064909680144064A18
:10048000116000BF04490968024A12689142F9D814
:1004900070470000000000200400002070B50446F2
:1004A0003B480078072870D2DFE800F0040E1822DD
:1004B0002C333C00EB2C03D101203549087002E0BD
:1004C00000203349087060E0902C03D102203049AD
:1004D000087002E000202E49087056E0FD2C03D180
:1004E00003202B49087002E00020294908704CE0E5
:1004F0000D2C03D104202649087002E00020244975
:10050000087042E020022349088005202049087035
:100510003BE02048008820441E49088006201C49F2
:10052000087032E01B480088002828DD1A4801685E
:100530000068401C184A106018484454104600686F
:100540001449098888421FDB00254FF4E1651046F5
:10055000008881B20322104603F06FFF06460E4862
:10056000008882B20D49304604F0B9F9304601F0F6
:10057000EFF80020064908700749086004E00020F1
:10058000034908700449086000BF00BF70BD000047
:10059000320000203000002040000020040800202D
:1005A00010B503460C46184600F07EFE08B1002048
:1005B00010BD41F64C50C05A185C207041F64C50AA
:1005C000C05A401C41F65051C95A90FBF1F201FB50
:1005D000120081B241F64C50C1520120E8E7000000
:1005E0001FB5042001F032FA684601F011F96421C8
:1005F0000198B0FBF1F4B4F1807F00D311E024F056
:100600007F40401E4FF0E02148610F214FF0FF3046
:1006100001F08AF800204FF0E0218861072008618E
:1006200000BF0021481E01F07FF800F029F900F01A
:1006300059FB1021012000F047FC00F0010028B117
:100640000548006840F0100003490860012000F0F0
:10065000ADFE00F053FE1FBD44000020344800688A
:10066000006800F00040E8B931480068006800F414
:100670008070B8B12F4800688068401C2D49096817
:1006800088602C4800688068012804D128480068E8
:1006900028490968086026480068264909684860B2
:1006A0000120704722480068006800F00040F0B95F
:1006B0001F480068006800F40070C0B11C48006862
:1006C000006800F4807090B91948006819490968F9
:1006D0000860002017490968486001201549096829
:1006E000886013480068C068114908601DE0104820
:1006F0000068006800F00040B8B90D480068006864
:1007000000F4007088B90A480068006800F480703E
:1007100058B9084800688068401C06490968886024
:1007200003480068C068024908600020B9E700007B
:10073000EC000020F000002030B10749896941F049
:100740000201054A916105E00349896921F002012E
:10075000014A9161704700000090024070B50C465C
:1007600013460021124D286000BF18E000EB411233
:100770004FF00045156044F2F4555560C1EBC115CA
:1007800005EB450504EB850595605D1E8D4204D99A
:1007900000EB41152035D56000E0D060491C99423E
:1007A000E4D3044DE860044D044E356070BD000094
:1007B000EC00002000900240E4DD0020F00000206A
:1007C00030B10749896941F40051054A916105E05A
:1007D0000349896921F40051014A91617047000081
:1007E0000090024030B50C46134600210F4D2860A2
:1007F00000BF15E000EB41124FF480151560C1EB0E
:10080000C11505EB450504EB850595605D1E8D4220
:1008100004D900EB41152035D56000E0D060491CBB
:100820009942E7D3024D286130BD0000E800002066
:100830000090024002680A430260704710B501212F
:10084000480600F0B5FF00214FF0007000F0B0FF47
:1008500010BD000008B5002000900848806940F4F1
:100860008010064988610846806900900120FFF7E2
:1008700003FE02490098886108BD00000090024014
:100880001CB50121072000F083FF0121880300F03F
:10089000AFFF012001F030F803208DF805000220A1
:1008A0008DF8040000208DF806008DF807008620E2
:1008B000009069461E4800F0B1FD0B2201211C4842
:1008C00000F0F4FD0B220221194800F0EFFD0B228D
:1008D0000721174800F0EAFD3220009069461548CC
:1008E00000F09CFD0B220121124800F0DFFD0B22DD
:1008F0000421104800F0DAFD0B2205210D4800F01C
:10090000D5FD4FF46050009069460B4800F086FD1D
:100910000B221146084800F0C9FD0B220C210648A5
:1009200000F0C4FD0B220D21034800F0BFFD1CBDEB
:100930000000024000080240000402400020044978
:10094000096801F0010109B1012000E000207047B1
:10095000009002401EB500210022009201920292F6
:100960000C4A12681268C2F30D42111F00910A4A24
:10097000126812680292084A12681268926801921C
:10098000044A1268D268034B1A609DE81C0080E894
:100990001C001EBDEC000020F00000202DE9F041FD
:1009A00088B004460F464FF000080025002007904D
:1009B000B54E029001200190B448056925F01C0550
:1009C00003A800F025FF049EB148864205D3B14834
:1009D000864202D245F008051AE0AE48864205D3A9
:1009E000A948864202D245F00C0511E0A64886428D
:1009F00003D3A948864200D20AE0A748864205D31D
:100A0000A648864202D245F0040501E045F01005F3
:100A10009E4805614FF400420021384600F00EFB6D
:100A200010B9002001906AE0FF20FFF725FD206843
:100A3000002850D000BF0298401C02900121384687
:100A400000F042FA00F0040018B995490298884273
:100A5000F1D393490298884202D1002001904EE0E0
:100A6000002002904FF480520021384600F0E6FA50
:100A700008B90020019000BF0298401C029001219B
:100A8000384600F021FA00F0200018B98449029895
:100A90008842F1D382490298884202D10020019015
:100AA0002DE0002002901021384600F00DFA80461B
:100AB00008F0040018B14FF40060206201E000204B
:100AC000206208F0020010B10020606116E04FF4CF
:100AD0008040606112E0206AC0F3CF006169C1F319
:100AE0004F0140EA01020021384600F0A7FA08B998
:100AF0000020019040F6FF70FFF7BEFC00BF019898
:100B000020B94FF400602062C00060615F48056852
:100B100064480540D4E901010843E16808432169BC
:100B2000084361690843A1690843E1690843216AF0
:100B30000843616A0843A16A0843E16A0843216BDC
:100B40000843616B08430543504805600568012070
:100B5000FFF792FC4D480560D4E90E010843216C73
:100B60000843616C0843A16C0843E16C0843216DA4
:100B70000843616D084345494860084645680120BF
:100B8000FFF77AFC414845604049A06D8860E06D00
:100B9000C860084685694FF641700540B4F860109A
:100BA000606E40EA0140A16E0843E16E0843216F88
:100BB0000843616F08430543344885618569012016
:100BC000FFF75AFC31488561D4E91E0108432F49DB
:100BD000C8610846C5690120FFF74EFC2B48C56176
:100BE0003148856931480540D4E920010843D4F8EB
:100BF00088100843D4F88C100843D4F890100843A8
:100C0000D4F894100843D4F898100843D4F89C10F2
:100C10000843D4F8A010084305432348856185693B
:100C20000120FFF729FC20488561D4E92901084308
:100C3000D4F8AC100843D4F8B0100843D4F8B4107A
:100C400040EA8100D4F8B810084340F40000164987
:100C50000860084605680120FFF70EFC1248056091
:100C6000006840F0800010490860084605680120CF
:100C7000FFF702FC0C4805600198012802D108B07A
:100C8000BDE8F0810020FAE700879303008002406E
:100C9000002D3101C00E160200E1F50580D1F008EB
:100CA000FFFF04000F8120FF00900240233FDEF889
:100CB00010B50B794C7943EA0422094B03441A64BA
:100CC000CB781B068C7843EA04434C7843EA042330
:100CD0000C7843EA0402024B03445A6410BD00003E
:100CE0000080024010B501214FF0606000F050FD1F
:100CF000FFF7A4FD00F01EF900BFFFF71FFE01285B
:100D0000FBD01E4800F040F901201C49086000207B
:100D1000C8614FF4007088620020C862886348642C
:100D2000C864086548654FF4806048620020C1F8D7
:100D300080004FF00070C1F884000011C1F88C00F1
:100D40000020C1F89400C1F898000420C1F8A00068
:100D5000C005C1F8A4004012C1F8A8008001C1F884
:100D6000AC004012C1F8B0004000C1F8B800012149
:100D70000248FFF713FE0249086010BDE849002051
:100D80004400002038B504460020009034B10B48E0
:100D9000006840F004000949086005E00748006861
:100DA00020F0040005490860044800680090012014
:100DB000FFF762FB01490098086038BD00800240DF
:100DC00038B504460020009034B10B48006840F06C
:100DD00008000949086005E00748006820F008009D
:100DE000054908600448006800900120FFF744FBB3
:100DF00001490098086038BD0080024070B5024685
:100E00000023002500242E480068006800F0004000
:100E100008B1002070BD2A48016840F2F4508242B7
:100E200008DD92FBF0F392FBF0F600FB162010B108
:100E30005B1C00E00123012B0CD1086840F04050FE
:100E40000860C2F30C004860086840F00040086089
:100E5000C96826E0002422E0086820F040500860BD
:100E60001CB9086840F08050086040F2F4504860B7
:100E7000581EA0420DD1086840F000500860581E6E
:100E8000C0EBC01000EB4000A2EB8005C5F30C00E6
:100E90004860086840F000400860C968641C9C42D3
:100EA000DAD3074801600748406900F0040020B128
:100EB0000420044E7061002070600120AAE7000049
:100EC000E80000200090024018B502460B460021C1
:100ED000002000901548016901F01C014FF4784092
:100EE00000EAC22001434FF4F86000EA8310014396
:100EF00021F0020141F001010C48016100BF00989E
:100F0000401C00900948016901F0010018B1084C2B
:100F10000098A042F3D3064C0098A04201D10020D3
:100F200018BD0248406980B2FAE700000080024024
:100F3000FFFF04000348006840F001000149086019
:100F4000704700000090024010B50120FFF738FF05
:100F50000120FFF717FFFFF77DFC0120FFF730FCB2
:100F60000120FFF7E9FB10BD10B50020FFF728FCBA
:100F70000020FFF7E1FB0020FFF704FFFFF76AFC0A
:100F80000020FFF71DFF10BD01210160002141601D
:100F90008160C16001614FF4804141610021816144
:100FA000C1614FF400610162002141628162C1624E
:100FB000016341638163C163402101642021416475
:100FC00000218164C164016541658165C165016677
:100FD0008021416600218166C166016741678167A2
:100FE000C1674FF08061C0F880104910C0F88410CC
:100FF0000021C0F888104FF40011C0F88C100021B7
:10100000C0F89010C0F89410C0F89810C0F89C1068
:10101000C0F8A0104FF00071C0F8A4104912C0F839
:10102000A8108901C0F8AC104912C0F8B010002116
:10103000C0F8B410C0F8B8107047000038B50346C7
:101040000C460021002000901448016901F01C01A9
:101050004FF4784000EAC32001434FF4F86000EAFF
:101060008410014341F0020141F001010B4842614B
:10107000016100BF0098401C00900848016901F020
:10108000010018B1064D0098A842F3D3044D009812
:10109000A84201D1002038BD0120FCE700800240B9
:1010A000FFFF040070B586B0064600200590019051
:1010B00096F83100C0F3001000285DD03248006877
:1010C000002843D0002005904FF4805200210120D9
:1010D000FFF7B4FF00BF0598401C059001210846AA
:1010E000FFF7F2FE00F0200018B928490598884261
:1010F000F1D30020059010210120FFF7E5FE044602
:1011000004F0040020B14FF400601F49086202E0BF
:1011100000201D49086204F0020018B100201A499D
:10112000486103E04FF4804017494861184805685A
:10113000154840691449096A084305431448056085
:101140000120FFF799F9124805680560FFF7FCFEDA
:10115000104804906FF07F4003900F48029002AB5C
:1011600003AA04A90D4803F095F80C4803F04AF9C6
:1011700000200B49087004E0FFF7F6FE074803F073
:10118000A3F806B070BD0000E8490020FFFF04008E
:1011900000800240C0A80171C0A80101B049002030
:1011A0004800002010B54FF4004000F01FF840B197
:1011B0000A48007808B905F0BDFC4FF4004000F083
:1011C0000FF84FF4804000F011F830B1012000F02A
:1011D000CDF84FF4804000F003F810BD4800002027
:1011E0000149086070470000143C0140014600209E
:1011F0000022074B1B6803EA0102054B14331B68EE
:101200000B4013B10AB1012000E00020704700003C
:10121000003C0140002123498279002A3AD00A4645
:10122000126803689A430B461A600A1D1268036825
:101230009A430B1D1A60027911440A6803681A4325
:101240000A60184A0832126803689A43154B08333B
:101250001A601A1D126803689A43124B0C331A6005
:101260004279102A0ED11A1F126803681A430D4BD7
:1012700008331A601A1D126803681A43094B0C33AD
:101280001A600DE00749427911440A6803681A435D
:101290000A6005E0027911440A6803689A430A600B
:1012A00070470000003C0140014641F64C50425A54
:1012B000801C405A824201D1012070470020FCE787
:1012C00030B504460D46204600F093F808B10020E2
:1012D00030BD41F64E50005B255441F64E50005B48
:1012E000401C41F65051095B90FBF1F201FB1200EA
:1012F00081B241F64E5001530120E9E700B585B0B7
:101300000121022000F044FA0121880300F070FA64
:1013100000208DF810008DF813004FF480400390EA
:1013200003A9114800F07AF80E21012000F0EAFA32
:101330004FF48040019000208DF808000C208DF8BB
:10134000090001208DF80A0001A8FFF763FF28209B
:101350008DF8000001208DF801008DF8030068462B
:1013600000F09CF905B000BD0004024010B5044631
:1013700012212046FFF7A8FD00F4005080B1102193
:101380002046FFF7A1FD00F0010018B1054803F069
:101390000BF805E0012004490870024802F0EFFF55
:1013A00010BD0000B04900204800002070B505467F
:1013B000002411212846FFF787FD044644F003046A
:1013C000224611212846FFF739FE08B9002070BDDA
:1013D00012212846FFF778FD044644F020042246F7
:1013E00012212846FFF72AFE08B90020EFE7012066
:1013F000EDE7014641F64E50405A401C41F650522E
:10140000525A90FBF2F302FB130241F64C50405A41
:10141000824201D1012070470020FCE7F0B50A4666
:1014200000210023002400BF3DE0012505FA01F35F
:10143000156805EA03049C4234D105684F00032671
:10144000BE40B543056015794E00B540066835438A
:1014500005601579012D02D01579022D16D1856808
:101460004F000326BE40B543856055794E00B54018
:10147000866835438560456801268E40B5434560E2
:10148000456896798E40B6B235434560C5684F00D1
:101490000326BE40B543C560D5794E00B540C66849
:1014A0003543C560491C1029BFD3F0BDF0B50023FA
:1014B00000244D07ED0E02FA05F3CE1000F12005D1
:1014C00055F826504E07F70E0F26BE40B543CF10F5
:1014D00000F1200646F82750CE1000F1200555F8FF
:1014E000265045EA0304CE1000F1200545F82640B9
:1014F000F0BD418370470183704700BFFEE70000E5
:101500001CB50121102000F043F94FF46040009019
:1015100001208DF8040003208DF805006946094874
:10152000FFF77CFF4FF400510648FFF7E4FF4FF44C
:1015300080410448FFF7DFFF4FF400410148FFF707
:10154000DAFF1CBD0010024000B587B000200390F8
:1015500002F0D6FC02F01EFE174806906FF07F40A6
:1015600005901648049016481649002204ABCDE9B0
:101570000021029005AA06A9134802F053FE124862
:1015800002F09CFE1148006811280BD10E4890F81B
:10159000310040F010000C4981F83100084602F09B
:1015A00031FF02E0084802F08FFE0949064802F0C8
:1015B000E3FE07B000BD0000C0A80171C0A8010192
:1015C000892D0008412E0008B04900204400002069
:1015D000A510000810B5024801F04AFC10BD00003B
:1015E000B049002000BFFEE72DE9F04190B004466D
:1015F0000D4617461E46DDF858801B48844204D924
:101600000121880500F0C4F803E00121480500F03D
:10161000BFF82046FEF74AFE00BF2046FEF7F2FE66
:101620000028FAD101950297039640200490CDF846
:101630001480002006904FF48060079000200890EE
:1016400009900A904FF480300B9000200C900320FA
:101650000D9000200E900F9001A92046FEF7DCFEB1
:1016600010B0BDE8F08100000064024010B50346F0
:101670000C4600211846FEF70EFE00BF1846FEF786
:10168000C1FE0028FAD121461846FEF7F1FE0121DD
:101690001846FEF700FE10BD7047000070B500212F
:1016A00000230F22C4781CB3174C246804F4E064B0
:1016B000C4F5E064C4F30721C1F10404E3B20A41B4
:1016C00044789C40E1B28478144021430C07210EF9
:1016D0000E4C05786155047804F01F050124AC40D8
:1016E00005786D11AD0005F1E025C5F8004109E070
:1016F000047804F01F050124AC40054D06787611EE
:1017000045F8264070BD00000CED00E000E400E06C
:1017100080E100E002490143024A11607047000085
:101720000000FA050CED00E010B5002807DA0A0702
:10173000140E054A00F00F031B1FD45403E00A07E0
:10174000130E024A135410BD18ED00E000E400E04F
:1017500010B504461CB10249204601F015FB10BD2E
:10176000B049002070B506460C461546EB202070A7
:1017700090206070FD20A0700D20E0702812207174
:1017800065712A463146A01DFEF71AFDA81D70BDE1
:1017900029B1064A12680243044B1A6004E0034A66
:1017A00012688243014B1A607047000030380240D3
:1017B00029B1064A12680243044B1A6004E0034A46
:1017C00012688243014B1A607047000010380240D3
:1017D00029B1064A12680243044B1A6004E0034A26
:1017E00012688243014B1A60704700004038024083
:1017F00029B1064A12680243044B1A6004E0034A06
:1018000012688243014B1A6070470000443802405E
:10181000F0B5002100220024022500260223324FC9
:101820003F6807F00C0121B1042905D0082937D100
:1018300005E02E4F076036E02D4F076033E02A4F5A
:101840003F1F3F68C7F38056274F3F1F3F6807F091
:101850003F036EB1264FB7FBF3F7DFF88CC0ACF156
:10186000040CDCF800C0CCF3881C07FB0CF40CE083
:101870001E4FB7FBF3F7DFF870C0ACF1040CDCF8D7
:1018800000C0CCF3881C07FB0CF4174F3F1F3F68C8
:10189000C7F301477F1C7D00B4FBF5F7076002E04A
:1018A000124F076000BF00BF0F4F3F6807F0F00105
:1018B0000909104F7A5C0768D74047600A4F3F68B4
:1018C00007F4E051890A0B4F7A5C4768D74087607C
:1018D000054F3F6807F46041490B064F7A5C476843
:1018E000D740C760F0BD0000083802400024F40073
:1018F00040787D01D7000020014908607047000052
:10190000DC00274230B500228B071C0F0F2303FA9F
:1019100004F20B4B8C1053F824309343084C8D1079
:1019200044F8253023468C1053F824308C07240FBC
:1019300000FA04F42343024C8D1044F8253030BDE6
:10194000083801400CB50020019000903A4800682A
:1019500040F480303849086000BF3748006800F420
:10196000003000900198401C0190009818B901982F
:10197000B0F5A06FF1D13048006800F4003010B12C
:101980000120009001E0002000900098012852D131
:1019900029484030006840F08050274940310860B5
:1019A0002648006840F44040244908602248083036
:1019B00000682149083108600846006840F400408A
:1019C00008600846006840F4A05008601C48091FE1
:1019D0000860081F006840F08070091F086000BFA1
:1019E0001548006800F000700028F9D0154800681C
:1019F00041F20101B1EB104F04D140F205701249E0
:101A0000086003E040F205600F4908600A480830AA
:101A1000006820F0030008490831086008460068A3
:101A200040F00200086000BF03480830006800F082
:101A30000C000828F8D10CBD0038024000700040AE
:101A400019544007002004E0003C0240042808D15B
:101A50004FF0E021096941F004014FF0E0221161EB
:101A600007E04FF0E021096921F004014FF0E02286
:101A70001161704710B500F051F810BD10B5154850
:101A8000006840F47000134908601348006840F093
:101A900001001149086000200F49083108600E4814
:101AA00000680E4908400C4908600D48091D08608F
:101AB000081F006820F48020091F086000200649E4
:101AC0000C310860FFF73EFF4FF00060014980399C
:101AD000086010BD88ED00E000380240FFFFF6FE10
:101AE0001030002408B508E04FF480410948FFF7A2
:101AF00000FD9DF80000FEF7D1FC6946064800682D
:101B0000FEF74EFD0028EFD14FF480410148FFF76A
:101B1000F2FC08BD001002403800002002480068B6
:101B20000A300149086070470000002000B589B004
:101B300001210820FFF72CFE01211020FFF758FE9D
:101B4000072209212E48FFF7B1FC07220A212C4861
:101B5000FFF7ACFC02208DF8100003208DF8110077
:101B600000208DF8120001208DF813004002039030
:101B700003A92348FFF752FC4FF48060039003A9A8
:101B80001F48FFF74BFC684600F0F7F869461D4810
:101B900000F0E3F84FF4E13005900020ADF81800B4
:101BA000ADF81A00ADF81C00ADF820000C20ADF81F
:101BB0001E0005A9134800F04BF94FF4A060FFF791
:101BC000A9FD25208DF8080000208DF809008DF86A
:101BD0000A0001208DF80B0002A8FFF75FFD01222B
:101BE00040F22551074800F00DF940F22661054802
:101BF00000F0A4F80121034800F0C5F809B000BDC9
:101C0000000002400010014010B540F2255112487A
:101C100000F0CEF868B1104800F084F90446E1B253
:101C20000E480068FFF74CFB40F225510A4800F0CF
:101C300085F840F22771084800F0BAF801280AD167
:101C400040F22771044800F079F8002240F2277131
:101C5000014800F0D7F810BD0044004038000020D3
:101C600000B589B001210820FFF792FD0121480449
:101C7000FFF7AEFD072205212E48FFF717FC0722CC
:101C800006212C48FFF712FC02208DF810000320DB
:101C90008DF8110000208DF8120001208DF813003E
:101CA0002020039003A92348FFF7B8FB40200390AE
:101CB00003A92048FFF7B2FB684600F05EF86946CA
:101CC0001D4800F04AF84FF4E13005900020ADF8CF
:101CD0001800ADF81A00ADF81C00ADF820000C207B
:101CE000ADF81E0005A9144800F0B2F84FF4A0604A
:101CF000FFF710FD26208DF8080000208DF8090060
:101D00008DF80A0001208DF80B0002A8FFF7C6FC31
:101D1000012240F22551084800F074F840F2266193
:101D2000054800F00BF80121034800F02CF809B039
:101D300000BD0000000C02400044004010B500222D
:101D4000002340F66A14A14200D100BF0A12012408
:101D50009440A3B2DC43048010BD10B502460020BD
:101D6000108A20F470600B884C8823438C882343AE
:101D7000CC8823431843108210BD0021018041808C
:101D80008180C180704721B1828942F400528281F2
:101D900004E082894DF6FF731A40828170471AB1C0
:101DA000838A0B43838202E0838A8B43838270475A
:101DB00070B50246002400230025002040F66A1674
:101DC000B14200D100BFC1F3421501F01F0301264B
:101DD00006FA03F3012D02D19689334006E0022D65
:101DE00002D1168A334001E0968A33400C12012654
:101DF00006FA04F41688344013B10CB1012000E057
:101E0000002070BDF0B50346002400260025002008
:101E100040F66A17B94200D100BF1846C1F3421418
:101E200001F01F06012707FA06F5012C01D10C303D
:101E300004E0022C01D1103000E014301AB1076820
:101E40002F43076002E00768AF430760F0BD000062
:101E50002DE9FF4705460E460024A14600BFA046D7
:101E6000B08900B100BF2C8A24F44054F0880443A8
:101E70002C82AC8941F20C608443B08831890843DC
:101E8000718908430443AC81AC8A24F44074B0895E
:101E90000443AC826846FFF7BBFC2048854202D071
:101EA0001F48854202D1DDF80C9001E0DDF8089072
:101EB000A88900F4004040B109EBC90000EB09100B
:101EC00031684900B0FBF1F707E009EBC90000EB0E
:101ED000091031688900B0FBF1F76420B7FBF0F01E
:101EE00004012009642101FB1078A88900F4004056
:101EF00040B1322000EBC800B0FBF1F000F0070069
:101F0000044308E0322000EB08106421B0FBF1F03C
:101F100000F00F0004432C81BDE8FF870010014052
:101F20000014014001468888C0F30800704700BFD4
:101F3000FEE700000FB4054B10B503A9044A029850
:101F400000F02CF810BC5DF814FB00009B2E00087C
:101F5000F80000200FB4084B10B504A902AA03989A
:101F600000F01CF8044602A9002000F0C1F8204649
:101F700010BC5DF814FB0000F120000802E008C866
:101F8000121F08C1002AFAD170477047002001E0F3
:101F900001C1121F002AFBD1704700002DE9FF4F3D
:101FA00089B09B460446002506E025280BD05A46FA
:101FB0000B999047641C6D1C20780028F5D10DB05A
:101FC0002846BDE8F08F0027B8460122474900E0C7
:101FD000074314F8013F203B02FA03F00842F7D10F
:101FE00020782E2819D114F8010F47F004072A2869
:101FF0000ED06FF02F022078A0F1300109290CD803
:1020000008EB880102EB410100EB0108641CF2E7D8
:102010000A98641C50F8048B0A9020780028CED0CF
:10202000642808D0692806D075281ED05A460B9916
:1020300090476D1C58E00A994FF00A0901C90A91AE
:10204000002802DA40422D2102E0390504D52B2177
:102050008DF82010012103E0F90704D02021F7E7D3
:102060008A4608AE0DE00021FAE70A994FF00A0906
:1020700001C90A91F7E74946FEF7DAF8303106F868
:10208000011D0028F7D1ADEB060000F1200978070B
:1020900001D44FF00108C84502DDA8EB090000E0BB
:1020A00000208046002706E008A85A46C05D0B992C
:1020B00090476D1C7F1C5745F6DB04E030205A46E4
:1020C0000B9990476D1CB8F10001A8F10108F5DCEF
:1020D00005E016F8010B5A460B9990476D1CB9F1B3
:1020E0000001A9F10109F4DC641C65E7092801007D
:1020F0000A68531C0B601070704770B504460D469B
:1021000000BF04B970BD00BF606A58B1606A007B4F
:10211000082807D12868616A496A884202D12046A6
:1021200000F0A6F800BFEDE72DE9F04106460C46A9
:10213000174600BF1EB96FF00D00BDE8F08100BF6B
:1021400000BF14B96FF00500F7E700BF00BF00BF84
:1021500000BF00BF00224FF49A71104602F06DF9E3
:102160002061206910B94FF0FF30E6E700BF00BFE3
:10217000607B20B93C480068401C3B4908603A48F5
:102180000068206020694068606101206169087012
:102190006169487096F82A00616988700020616959
:1021A000C870206801F0F8FD61694860002061692D
:1021B0000881616948816169C860082F09D0042FCE
:1021C00007D0032F08D1207B052802D0207B0428CC
:1021D00002D170686169C860002061690861616945
:1021E00048616169886100250DE096F82A00A842DF
:1021F00003DD06F12B00405D00E0002061691C3129
:102200004855681C85B2102DEFD3002505E000214C
:1022100060692C304155681C85B2402DF7D30025EC
:1022200005E0002160696C304155681C85B2802D45
:10223000F7D30E486169C1F8EC0000202083002527
:1022400004E06069F0304555681C85B2442DF8D330
:1022500001223521204600F0EBF83946204600F0F7
:10226000F7F8002069E70000500000206382536304
:102270002DE9F84305466C6A00260C21204600F043
:1022800099F9042221462846FFF74EFF0646FEB97B
:1022900004223221204600F0CBF8606A01F08FFD65
:1022A00080464146204600F0DCF8204600F00BF95D
:1022B000228BF03291B2206902F0D0FA00954323CC
:1022C0000B4A2169606804F0B0FE204600F012F865
:1022D000607B401C607342F2107707F2F3104FF4FA
:1022E000FA7190FBF1F060833046BDE8F88300009E
:1022F0002071000810B5044600BF04B910BD00BF2E
:1023000000BF00BF00BF00BF206910B1206902F00C
:1023100023FA00202061606100BFEFE7F8B50546B1
:102320006C6A0026002060620621204600F042F917
:10233000012221462846FFF7F7FE0646002E30D13F
:1023400002223921204600F073F8298D204600F042
:10235000A9F804223721204600F06AF8012120461E
:1023600000F076F80321204600F072F81C21204688
:1023700000F06EF80621204600F06AF8204600F0D2
:10238000A2F8228BF03291B2206902F067FA009530
:102390004323124A2169606804F047FE2046FFF794
:1023A000A9FF607B401C6073607B062803DA617BB9
:1023B0000120884000E03C2000EB4001C1EBC01050
:1023C0004FF6FF7101EAC00707F2F3104FF4FA71FC
:1023D00090FBF1F060833046F8BD000020710008EA
:1023E00070B505466C6A04B970BD207B042809D01D
:1023F00003DC98B1032812D107E0052803D00A288E
:102400000DD101E000BF00BF00BF284601F05CFF16
:1024100000206073284600F079F806E005E000200F
:1024200060732846FFF77AFF00BF00BF00BFDBE7FD
:1024300010B500BF00BF048B631C03834369F033F6
:102440001955048B631C03834369F0331A5510BD7F
:1024500000BF00BF038B5A1C02834269F032D15483
:10246000704710B500BF00BF0B0E048B621C0283C7
:102470004269F0321355C1F30743048B621C028397
:102480004269F0321355C1F30723048B621C0283A7
:102490004269F0321355048B621C02834269F032A8
:1024A000115510BD10B500BF00BF0B0A048B621C94
:1024B00002834269F0321355048B621C0283426925
:1024C000F032115510BD00BF00B9704700BF00BF0A
:1024D00000BF00BF00BFFF22038B591C018341696D
:1024E000F031CA5406E00022038B591C0183416974
:1024F000F031CA54018B442903D3017E01F003015A
:1025000011B1018B4429EED300BFDEE72DE9F8437A
:1025100005466C6A0321204600F04CF80322214650
:102520002846FFF701FE06464EBB0222392120460F
:10253000FFF77EFF4FF410712046FFF7B3FF042230
:1025400032212046FFF774FF606A01F038FC8046B4
:1025500041462046FFF785FF2046FFF7B4FF228B58
:10256000F03291B2206902F079F900954323104AC4
:102570002169606804F059FD2046FFF7BBFE607BCF
:10258000401C6073607B0A2805DA607B4FF47A7127
:1025900010FB01F001E042F2107087B207F2F31075
:1025A0004FF4FA7190FBF1F060833046BDE8F88398
:1025B00020710008027B8A4203D00173002242731B
:1025C000428370472DE9FC4705468846164600BF02
:1025D0000DB9BDE8FC8700BF70892A2803DA3046B0
:1025E00002F0BAF8F5E7776807F10E042088B0F535
:1025F000807F08D12079062805D16079042802D18E
:102600006088082803D0304602F0A6F8E1E7D4F845
:102610000E000190A0690090281D08B1686810B9EB
:102620004FF0000907E000986968884201D1012055
:1026300000E000208146B9F1000F01D0012000E048
:102640000220034604F1080201A9284600F040FBDD
:10265000E088B0F5807F03D0B0F5007F31D12BE06A
:10266000B9F1000F26D0022001F0A3FBE080D4F8DE
:102670000E00A0616868C4F80E0000BF00BFA0682B
:10268000C4F81200A089E082A0683860A089B880F0
:10269000D8F80000A060B8F80400A081D8F80000C5
:1026A000C7F80600B8F80400788131462846AA69C0
:1026B000904700E000BF05E001A92846FFF71DFD97
:1026C00000E000BF00BF304602F046F800BF80E7E0
:1026D00070B50546002412E004EB8400094901EBC3
:1026E0008000867C4EB104EB840001EB80008068A2
:1026F000A84202D1204600F0B7F8601CC4B20A2CF0
:10270000EADB70BD4CAC00202DE9FC5F05460F46AE
:102710004FF00A08C1460A260024A3460020019073
:10272000B246009000BF5CE004EB84004D4A02EB2F
:102730008000817C0A2E02D109B966B24FE00029DF
:102740004DD000BF00BF5DB104EB8402454B03EBED
:10275000820228685268904202D160B2BDE8FC9FB4
:10276000012928D104EB84003E4A52F8200088B1A8
:1027700004EB840002EB8000C27C009882422EDBD6
:102780004FFA84FA04EB8400364A02EB8000C07CE6
:10279000009024E004EB8400324A02EB8000C07C0D
:1027A00058451CDB4FFA84F804EB840002EB8000F0
:1027B00090F813B013E0022911DB04EB8400294ADE
:1027C00002EB8000C27C0198824208DB4FFA84F958
:1027D00004EB8400234A02EB8000C07C0190601C63
:1027E000C4B20A2CA0DB07F0020020B90A2E05D1E2
:1027F00007F0010010B94FF0FF30AFE70A2E01DA01
:10280000F4B21AE0B9F10A0F03DA09F0FF0400BFCD
:102810000EE0B8F10A0F02DA08F0FF0408E0BAF19E
:102820000A0F02DA0AF0FF0402E04FF0FF3095E7EA
:1028300000BF00BF204600F017F800BF00BF00BF78
:1028400000BF35B104EB8401064A02EB8101286820
:102850004860002004EB8401024A02EB8101C87445
:1028600060B27BE74CAC002010B5044604EB84005A
:102870000C4951F8200060B104EB8401094A52F878
:10288000210001F069FF002004EB8401054A42F8B1
:102890002100002004EB8401024A02EB81018874CC
:1028A00010BD00004CAC00202DE9FC4704460F464B
:1028B0001546A94600BF00BF00BF00BF00BF00BF54
:1028C0000E21384601F08BFF18B16FF00100BDE812
:1028D000FC872146286800F017FC10B1DFF804815E
:1028E00077E0287800F0F000E02815D101208DF87D
:1028F000000000208DF801005E208DF8020068784D
:1029000000F07F008DF80300A8788DF80400E878C7
:102910008DF80500E8465BE02868A1680840D4E926
:1029200001121140884210D0288880B24FF6A96168
:1029300088420AD004F10C0020B1E06810B104F123
:102940000C0902E06FF00300C1E72748007800EBB4
:102950008000264901EB8000807C022812DB22499E
:10296000097801EB8101214A02EB8101D9F80000CD
:102970004968884206D11C4802783946204600F052
:1029800037F8A4E700261BE006EB8600174901EBA9
:102990008000807C022811DB06EB8601134A02EBE3
:1029A0008101D9F800004968884207D10E490E70AC
:1029B000F2B23946204600F01BF888E7701C46B298
:1029C0000A2EE1DB3A464946204600F047F87EE70A
:1029D00000BF434604F12B023946204600F05CF963
:1029E00075E7000024710008D60000204CAC0020E0
:1029F00070B505460E46144600BF00BF04EB8400C8
:102A0000154901EB8000807C022817D104EB84007B
:102A100001EB8000C07CE42810DB04EB84000A4654
:102A200002EB8000011D284600F020F930B9032098
:102A300004EB8401084A02EB8101887404EB8400F2
:102A4000054901EB800000F10C0305F12B02314632
:102A5000284600F021F970BD4CAC00202DE9F05F54
:102A600080460E46174608F12B094FF0FF3A4146C3
:102A7000306800F049FB38B9307800F0F000E02809
:102A800002D00EB1306818B96FF00D00BDE8F09FAC
:102A900001213046FFF738FE0446002C01DA2046BB
:102AA000F4E704EB8400424901EB8000807C30B9FC
:102AB000012004EB84013E4A02EB8101887400BFCF
:102AC00000BF04EB84003A4901EB8000807C0128C0
:102AD00000D03FB93146404600F0C8F882460FB9F1
:102AE0005046D3E700BF00BF04EB8400304901EB40
:102AF0008000807C02280FDB2E490C7004EB8400E0
:102B00002B4901EB800000F10C034A463946404650
:102B100000F0C2F8824648E004EB8400244901EB4F
:102B20008000807C012840D14FF0000B3D4608E03A
:102B300000BF00BF287B012802D04FF0010B02E04C
:102B40002D68002DF4D100BFBBF1000F10D02989F2
:102B50000022032001F071FC05466DB1394628467C
:102B600001F09AFD40B1284601F0F6FD002503E092
:102B70003D46284601F0AEFEA5B104EB84000C49A9
:102B800051F8200030B104EB8401094A52F82100C9
:102B900001F0E2FD04EB8400054941F820504FF0BC
:102BA000000A01E04FF0FF3A00BF50466EE7000018
:102BB0004CAC0020D60000202DE9F84F074688468F
:102BC00091469A46DDF828B00020009000BF00BF73
:102BD00000222A21032001F030FC05461DB94FF0E8
:102BE000FF30BDE8F88F00BF00BF6E6806F10E042D
:102BF0000D9801F0DEF8E08000BF00BFDAF80000B9
:102C0000A060BAF80400A0810B980168C4F8121003
:102C10008088E082D9F800003060B9F80400B08004
:102C2000D8F80000C6F80600B8F804007081DBF898
:102C30000000C4F80E000C980068A0614FF480708A
:102C400020800820608006202071042060714FF4ED
:102C5000C160B08129463846BA699047009028463D
:102C600001F07AFD00250098BBE700007FB504461F
:102C70000D460121064A201D04F12B038DE8250095
:102C80000391044A19462046FFF796FF04B070BD31
:102C90002A710008247100082DE9F04105460E460E
:102CA00017469846746800BF00BFD8F8000020603F
:102CB000B8F80400A0803868C4F80600B8886081BD
:102CC0000820A08131462846AA699047BDE8F081D6
:102CD0002DE9F04706460D461746984600BF00BF4F
:102CE0005DB1286848B13146286800F00DFA20B976
:102CF000287800F0F000E02803D16FF00D00BDE867
:102D0000F08741462846FFF7FFFC0446002C01DA15
:102D10002046F4E7022004EB84011A4A02EB810109
:102D2000887404EB8400114601EB8000866004EB9C
:102D3000840001EB80003968C160B98801820020FD
:102D400004EB840102EB8101C87404EB840011469A
:102D500051F8200098B104EB840051F82090002035
:102D600004EB840142F821003B4606F12B02494660
:102D70003046FFF791FF484601F0EEFC00BF00200F
:102D8000BDE700004CAC00202DE9F04104460E46A2
:102D90004FF00E0860890E2800DC49E06568AF89B5
:102DA000287800F00100B0B12878012809D16878AE
:102DB00088B9A8785E280ED1607B40F0100060735F
:102DC00009E006221D492846FDF725FA18B9607B5F
:102DD00040F008006073082F03D0B7F5C16F22D10F
:102DE00014E096F8310000F0200000B920E0C8F1AE
:102DF000000001B2204601F0F2FC10B100BF00BF9C
:102E000016E03146204600F08BFA0DE096F83100CE
:102E100000F0200000B90BE0224606F12B013046FD
:102E2000FFF7D0FB00E003E000BF0020BDE8F08129
:102E3000204601F091FC0020F8E700002471000812
:102E400010B5044600BF00BF732084F8320074211F
:102E500033200155044860610448A061204600F019
:102E600039FE002010BD0000A9280008353C0008EC
:102E700070B50446204600F06DFE064616B94FF0C8
:102E8000FF3070BD2146304622699047054615B196
:102E9000304601F061FC2846F3E738B504468DF86A
:102EA000000069460320ABBE204638BD70B505461C
:102EB0000C4622460321284600F0B0F870BD000001
:102EC0002DE9FE4F044689466568287800074FEAD9
:102ED0009068C8F10001204601F081FC10B92089FA
:102EE000042800D28DE0606890F800A0BAF1000FCD
:102EF00003D0BAF1080F7ED100E07DE001264548FD
:102F0000007800F0F000E02800D100264149086870
:102F1000494600F0F9F800B1002626B9204601F034
:102F20001BFCBDE8FE8F2089082800D269E02046FE
:102F300000F0BFF818B1204601F00EFCF1E72221A5
:102F4000204601F04CFC48B34146204601F047FCC6
:102F500010B100BF00BF58E021890022022001F01B
:102F60006CFA064606B950E000BF00BF2146304665
:102F700001F092FB10B100BF00BF46E07568C8F1D8
:102F8000000001B2304601F02AFC10B100BF00BFC2
:102F90003BE0204601F0E0FB344608E06FF0210101
:102FA000204601F01CFC10B100BF00BF2DE0676897
:102FB00018480068E86018480068286100203870E8
:102FC0007880FF202872002068814146204601F069
:102FD00006FC10B100BF0DE00DE001200021FF2331
:102FE0000A46CDE9010900910A49204600F090FA0D
:102FF000064600BF00E000BF00BF204601F0ACFB6A
:103000008FE7204601F0A8FB8BE7204601F0A4FBE8
:1030100000BF86E7C8000020C40000202DE9FE4361
:1030200006460F46904600222421012001F005FAB1
:1030300005460DB9BDE8FE8300BF00BFD6F8049079
:103040006C68277084F801800020A080E08071689F
:103050006A6802F108001C22FDF7B2F800206080C7
:103060006989204600F01BF86080D9F80C000290B6
:1030700001200021FF2302AACDE90010284600F01C
:103080002BFA284601F068FB00BFD3E770B5054670
:103090000C4622460B212846FFF7C0FF70BD70B5D5
:1030A00004460D462946204600F095FEC04380B2F6
:1030B00070BD2DE9F041064600240027354617E093
:1030C0006989686800F087FE0444A0B200EB1444EC
:1030D000688900EBD0714910A0EB410139B1C7F10B
:1030E0000100C7B2E0B2C4F3072141EA00242D6811
:1030F000002DE5D127B1E0B2C4F3072141EA002455
:10310000E04380B2BDE8F08118B502460092D0439A
:1031100000B10AB9012018BD91F8310000F0020099
:1031200008B90020F7E74868904201D10020F2E793
:1031300000988B681840D1E901342340984208D1A7
:10314000886822EA00008C68E343984201D101209C
:10315000E1E70020DFE700002DE9F74F8CB00446DF
:103160008946B9F828000890142004904FF0000810
:1031700060680B900B9EF08800F027FE0390039888
:10318000C0F30C000790039800F4005006902089CB
:10319000143880B209900899A1F11400C11700EB0E
:1031A0005171C1F3CF010A91A4E00898143809992C
:1031B000884201DB012000E0002005900798C0F361
:1031C0000C00069908430390059818B9039840F439
:1031D00000500390059808B1099801E00A98C000D2
:1031E0001FFA80FB00221421022001F026F9054677
:1031F00025B94FF0FF300FB0BDE8F08F00BF00BF22
:10320000142268680B99FCF7DBFF6E68616804980C
:103210000844606061890498081A6081CDF808B09C
:103220003FE061890298814201DD029800E06089F7
:103230008046B8F1000F01D1246832E000F062F856
:1032400007462FB9284601F087FA4FF0FF30D2E742
:1032500060683B4602224146CDE90008032001F0A8
:10326000B5F98246BAF1000F08D1384600F04FF8A0
:10327000284601F071FA4FF0FF30BCE7204601F01C
:1032800029FB7C611E4838615146284601F0D4F97B
:103290000298A0EB080080B20290029800B1246866
:1032A00000BF02980028BCD1CDF81080039800F030
:1032B00080FDF0800BF1140188B200F07AFD70807F
:1032C0000020708114213046FFF7E9FE7081D9F8A3
:1032D0001430294648460E9A9847284601F03CFA91
:1032E0000998A0EB0B0080B209900A99079808444E
:1032F00080B20790099800287FF457AF00BF7AE7A3
:10330000B53A000810B5062000F076FF10BD10B5E4
:10331000044600BF00BF2146062000F02BFF10BD71
:103320002DE9F05F06460F464FF0010A75682878D0
:103330000421B1EB201F05D0304601F00DFA00202A
:10334000BDE8F09F287800F00F084FF6FF7000EA04
:103350008808688800F039FD81467089404502DBA5
:103360003089484504DA304601F0F6F90020E7E7F5
:103370004946304601F072FA286952490860E86807
:10338000514908604FF0010B3C4600BF94F83100F2
:1033900000F0010078B1201D68B1606858B149485B
:1033A00000686168884205D0464908682146FFF7F1
:1033B000ABFE00B10DE0BBF1000F04D04FF0000BED
:1033C0004248046800E02468BC4200D12468002C14
:1033D000DCD100BF64B9687A112809D105EB080077
:1033E0004188B1F5884F02D13C464FF0000A00BF3A
:1033F000BAF1000F13D03448006880B13249086830
:103400003946FFF781FE28B92F48007800F0F00018
:10341000E02804D1304601F09FF9002090E724B95C
:10342000304601F099F900208AE7E8884FF63F71AD
:10343000084038B1304600F0CDF806460EB90020FD
:103440007EE77568224807602248056039463046A5
:1034500001F0C4FA58BB687A01280DD0062806D0BE
:1034600011280ED13946304603F052FC1EE0394691
:10347000304601F085FD19E039463046FFF720FD62
:1034800014E0104908683946FFF73EFE50B90D4870
:10349000007800F0F000E02804D07560022130468A
:1034A000FFF704FD304601F057F900BF00BF0020D0
:1034B0000749086007490860034908600149086036
:1034C00000BF3DE7C8000020C400002068000020C5
:1034D000BC000020C00000202DE9FE4F06460F462C
:1034E00015469846DDE90C9A00BF00BF284600F05B
:1034F000B7FA041E02D1001FBDE8FE8F43462A46DC
:1035000039463046CDE9009A029400F001F8F3E71D
:103510002DE9F84F05460F4690469A46DDF828B04B
:103520000C9E00BF00BFB8F1000F3BD04FF0140954
:103530001421284601F053F918B16FF00100BDE8DD
:10354000F88F6C6800BF00BF84F808A00B98607209
:10355000D8F80000206148464FEAE97109EB917103
:10356000C1F3870141F04001217084F801B028893E
:1035700000F01FFC60800020E0801548008800F00B
:1035800018FCA08012480088401C114908800FB127
:10359000386810B97068E06001E03868E0600020C9
:1035A000608103E06C6820690090E846308D48B186
:1035B0002889318D884205DD424631462846FFF78D
:1035C000CBFDBCE742462946304673699847B6E7CB
:1035D000CC0000202DE9F84F804600200090D8F85C
:1035E0000450287800F00F001421B1EB800F00D0B8
:1035F000ACE0E88800F0E9FBC0F30C004FF6FF7187
:1036000001EAC00A688800F0E0FB297801F00F01A8
:10361000A0EB81001FFA80FB404601F034F806461B
:103620004D48018888190A280ADD3146284600F0ED
:10363000D9F920B14848008830440A2800DD85E0E7
:103640004648046812E06069E968884209D1A069C7
:103650002969884205D1A089A988884201D1012021
:1036600000E0002000B103E000942468002CEAD1BF
:1036700000BF34B93146284600F03AF9044694B9FF
:1036800064E0E88800F0A1FBC0F30C0058B9E089C1
:1036900000F09BFBC0F30C0028B11422294604F172
:1036A0000800FCF78DFD2C48008830442A4908802A
:1036B000A87900F0200030B9A07F40F00100A07789
:1036C0000AEB0B00A0834146204600F049F8D0B336
:1036D000A08B1430A0836068406807686068456804
:1036E000142204F108012846FCF76AFDA08B00F0C3
:1036F00060FB68800020E880688114212846FFF77D
:10370000CEFC6881D4F804800CE0D7F804906FF008
:103710001301384601F063F83946404600F08CFF4B
:10372000D9F80070002FF0D12046009900F0CAF8B7
:10373000404600F0A8FF08490988081A0649088091
:103740004046BDE8F88FFFE70020FAE7404601F069
:1037500003F80020F5E70000D4000020D00000208E
:103760002DE9FC5F81460E4600254FF0010BD6F88F
:1037700004A0BAF8020000F028FB9AF8001001F04B
:103780000F01A0EB810080B20090BAF8060000F0B3
:103790001CFBC0F30C004FF6FF7101EAC000019062
:1037A00000BF00BF7468002020600198A080DDE9A0
:1037B00000100844E080D9F804802AE0D8F80470AA
:1037C000A088B988884210DAC4F8008055B1A08872
:1037D000E988884203DBE088B988884200DD62E03E
:1037E0002E6001E0C9F8046016E0A088B98888421C
:1037F00000D158E0A088F988884200DA53E02DB162
:10380000E888B988884201D04FF0000BD7F80080D3
:103810003D46B8F1000FD1D100BFB8F1000F0ED175
:103820004DB100BF00BF2E60E888A188884206D055
:103830004FF0000B03E000BF00BFC9F8046099F827
:103840001E0000F0010060B3BBF1000F26D0D9F8D4
:1038500004004068808810B14FF0000B1EE0254640
:10386000D4F800800BE0D8F80440E888A1888842AA
:1038700002D04FF0000B05E02546D4F80080B8F1E7
:10388000000FF0D100BFBBF1000F07D000BF00BF99
:1038900000BF00BF00BF00BF00BF00BF5846BDE86B
:1038A000FC9F0020FBE7304600F0EDFE044909884C
:1038B000081A03490880304600F04EFF0020EEE76A
:1038C000D400002070B504460D4608480068A042A8
:1038D00003D106492068086003E000BF00BF2068EC
:1038E00028602146052000F045FC70BDD000002076
:1038F00070B505460E46052000F07EFC044664B90E
:103900003146284600F06EF8B04203DB052000F097
:1039100073FC04460CB9002070BD20212046FCF742
:1039200068FC0320E07706480068206004480460D3
:103930001422294604F10800FCF742FC2046EBE77C
:10394000D00000202DE9F04704468946002600BF3C
:1039500000BFB9F1000F01D000BF00BF6068D0F810
:103960000480B8F80400C0B96568D8F80000606049
:10397000142204F108016868FCF722FC01212846A2
:10398000FFF784FB284600F07EFE074600BF00BF1D
:10399000F01986B2284600F0DFFE656810E0D5F821
:1039A0000480AA46D8F80050504600F06CFE074646
:1039B00000BF00BFF01986B2504600F0CDFE00BF38
:1039C000002DECD149462046FFF77CFF00BF00BF29
:1039D00003480088801B024908803046BDE8F08714
:1039E000D40000202DE9F05F05468946002700BF7E
:1039F0000026B346B246194804681DE06069E968CC
:103A0000884207D1A0692969884203D1A089A98881
:103A1000884201D0012000E0002048B10AF1010AEB
:103A20000EB9264604E0E07FF17F884200DC26469E
:103A3000206800B1A3462468002CDFD12EB159467E
:103A40003046FFF77FFF804647444F4502DABAF120
:103A5000010FCDDC3846BDE8F09F0000D00000200B
:103A600010B50246114801680FE091F8310000F0EE
:103A7000010048B110688B681840D1E90134234037
:103A8000984201D1084610BD09680029EDD10848C7
:103A9000006830B10648006890F8310000F001007D
:103AA00008B90020EFE702480068ECE76800002052
:103AB0006C00002070B505462C4600BF00BF00BF5B
:103AC00000BF606910B1606900F046FE2046FFF754
:103AD0001EFC70BD70B50446062084F82A00022042
:103AE00084F82B0000212C2001552D2001552E207B
:103AF00001552F20015501213020015504F12B01E2
:103B00000020FDF7D5F840F2DC502085222084F813
:103B1000310004220B490C48FCF764FE04220B49D7
:103B20000B48FCF71BFE002507E0074901EB451099
:103B30004FF44001FCF77EFE6D1C042DF5DBFDF714
:103B400003FA70BD14C60020C4AD002044AE0020AE
:103B500044AD00202DE9F04F87B00024A146002796
:103B6000A3466846FCF7F6FE9DE8070003AB07C3D3
:103B700003980690DDF810A0069881B20322104643
:103B800000F05BFC8046B8F1000F2ED0059E00BF10
:103B9000454628E06F894FF0000915E040F2F453E4
:103BA0001A1B0AEB04016B6803EB0900FCF708FB26
:103BB000F668D6F808A040F2F450001B3F1A40F215
:103BC000F450001B81440024381940F2F45188421B
:103BD000E4D80AEB04016A6802EB09003A46FCF7F4
:103BE000EFFA3C442D68002DD4D1059E4FF0000B18
:103BF00005E04FF000403060F6680BF1010B0B4818
:103C0000006880685845F4D8002008490968886031
:103C10000748406900F0800020B1802004494861D5
:103C200000208860404607B0BDE8F08FF00000201B
:103C3000009002402DE9F34FADF2347D282247A1D8
:103C40000DF20C70FCF7BCFA4E480068D0F80890F2
:103C5000002500240027A2464A48D0F8008000BF73
:103C6000DDF8386740E0D8F8000000F0004010B1FF
:103C70006FF0010B62E077894FF0000A23E040F219
:103C8000F4531A1B736803EB0A0109EB0400FCF7F9
:103C900097FAD8F80C80D8F8000000F0004010B176
:103CA0006FF0070B4AE0D8F8089040F2F450001B80
:103CB0003F1A40F2F450001B824440F2F450001BC3
:103CC000284485B20024381940F2F4518842D6D8ED
:103CD000726802EB0A0109EB04003A46FCF770FA3D
:103CE0003C44E81985B23668002EBCD14FF48041BF
:103CF0002548FDF7FEFB2846FDF780F82A4601A976
:103D00004846FDF72FFD85B2FDF7AAFF01AB1F4A1C
:103D100051061F480095FDF767FC012280211B48D2
:103D2000001FFEF73CF829461948FDF79FFCB346F3
:103D30004FF480411448FDF7DEFB00BF1548406991
:103D400000F0200020B12020124948610020486086
:103D500058460DF23C7DBDE8F08F0000414C4945CE
:103D60004E54454B204578706C6F726572205354E9
:103D70004D3332463420444D4120B4AEBFDACAB58B
:103D8000D1E90000E8000020001002400444004097
:103D9000A0600240009002400146080601F47F4204
:103DA00040EA022001F47F0240EA122040EA11605A
:103DB000704701460806000C40EA1120704700B524
:103DC00003461846FFF7E8FF00BD00B5024610465F
:103DD000FFF7EFFF00BDF8B505460A462B46002069
:103DE0000090002103F0010636B1002A04DD13F82B
:103DF000010B8DF80100521E1C4603E034F8027BD3
:103E00003944921E012AF9DC002A02DD20788DF85F
:103E10000000BDF80000014488B200EB114188B2F7
:103E200000EB114126B1C8B2C1F3072747EA0021D0
:103E300088B2F8BD4FF461611848FCF7DAF94FF425
:103E400061611748FCF7D5F941F64C5115480068F7
:103E5000FCF718FA41F64C5113480068FCF712FAC7
:103E60004FF44070FDF756FCFCF7BAFBFDF76CFB16
:103E7000FDF746FBFDF7F4FEFDF758FE4FF4005149
:103E80000A48FDF736FB02F0EBFE06E0FCF7E6FB26
:103E900008B1FDF79FFBFDF725FEF7E7FC000020CA
:103EA00004080020380000203400002000100240E8
:103EB00070B5054605B970BD00BF00BF00BF00BFAB
:103EC0000C480068854203D30B480068854200D344
:103ED000F1E7A5F1080400BF00BF002020710748EA
:103EE0000068844201D205480460204600F032FD9B
:103EF00000BFE0E75C0000206000002064000020BC
:103F000000BF00BF114921F00301114A11601146A1
:103F100008684FF420510180002141800171114651
:103F2000096801F520510B4A1160012112681171D5
:103F30004FF42051074A12681180064A12685180D6
:103F400003490968044A1160704700000B4B0020C8
:103F50005C0000206000002064000020F0B50246F4
:103F60000AB90020F0BDD01C20F0030082B20C2A58
:103F700000DA0C22B2F5205F01DD0020F2E72F48C5
:103F800000882F4E3688801B83B250E02C48006892
:103F9000C1180879002847D10E8803F10800301AAB
:103FA000904241D30E8803F10800361A02F1140042
:103FB000864218D303F10800104485B220480068F7
:103FC0004419002020710888208063800D80012022
:103FD00008712088B0F5205F07D02088184E366819
:103FE0003044458001E00120087114480068814296
:103FF00011D1124E306803E00688114F3F68F01966
:1040000006791EB10F4E3668B042F5D10B4E3060C6
:1040100000BF00BF00BF00BF00BF00BF00BF00BFA8
:1040200000BF01F108009DE705480068C35AC2F5CA
:1040300020509842AADC002094E700006400002091
:104040005C000020600000202DE9F04106460A4691
:10405000D01C20F0030082B20C2A00DA0C22B2F548
:10406000205F02DD0020BDE8F08100BF00BF3E48B8
:104070000068864203D33D480068864201D330463B
:10408000F1E7A6F1080438480088201A85B2208894
:10409000401B083887B200BF00BFBA4201DD0020D4
:1040A000E1E7BA4201D13046DDE72088DFF8B8C049
:1040B000DCF800C000EB0C01087980BB088805F132
:1040C000080C94441FFA8CF3DFF8A4C0DCF800C09D
:1040D0008C4508D1DFF890C0DCF800C09C44DFF8C4
:1040E0009080C8F800C0DFF880C0DCF800C00CEB9E
:1040F00003014FF0000C81F804C008804D8023803C
:10410000B1F800C0BCF5205F08D0B1F800C0DFF8FE
:104110005880D8F80080C444ACF8023022E0FFE7B1
:1041200002F11400B8421DD805F10800104483B212
:104130000D480068C1180E480068814201D20C4841
:10414000016000200871208808804D802380088845
:10415000B0F5205F06D00888DFF80CC0DCF800C09E
:104160006044438030467EE75C0000206000002011
:104170006400002001B9704700BF00BF0A46044B2D
:1041800053F820301360024B43F8202000BFF2E7C1
:104190001C73002010B5002001E0431C98B20928D0
:1041A000FBDB114B23F00301002019E000230F4C2F
:1041B00044F8203000220CE00C4B53F820300B6008
:1041C0000A4B43F820100A4B33F810301944531CA3
:1041D0009AB2084B33F810309342EDDC431C98B28E
:1041E0000928E3DB10BD0000437300201C7300208E
:1041F000F87000080A710008024600BF092A01DBB6
:104200000020704700BF064850F8221031B1044B1F
:10421000086843F8220000BF00BF00BF0846F0E76F
:104220001C7300202DE9F04704460D4616461F4634
:10423000DDE909A9DDF8208000BF00BF0020606033
:10424000A060E06084F831006062E061C4F8208022
:104250000E48007884F834000C480078401C0B4964
:104260000870C4F810903B4632462946204600F0BC
:1042700011F82046D04710B10020BDE8F08704486F
:1042800000682060024804602046F6E770000020C5
:10429000680000202DE9F04106460F4614461D46F1
:1042A0003946304600F02CF82146304600F0A4F89C
:1042B0002946304600F01DF8BDE8F081014908604C
:1042C000704700006C00002010B5044694F83100DF
:1042D00000F0010060B114F8310F20F001002070EF
:1042E00014F8310900F0200010B12046FEF7F0F973
:1042F00010BD09B9002200E00A68C26070470000E2
:104300002DE9F04107460C4654B32068796888428D
:1043100001D1012000E0002010BB154806680BE029
:1043200030687968884206D1D6F80C80304600F0B3
:10433000D9FB464600E0F668002EF1D10D4805682D
:104340000CE055B1286840B128687968884204D1EA
:104350000CB9002000E020682860ED68002DF0D145
:104360000CB9002000E020687860BDE8F081000012
:10437000880000208400002000B1C161704710B5A2
:10438000044694F8310000F0100060B194F8310058
:1043900020F0100084F8310000BFE06910B1204621
:1043A000E169884700BF10BD10B5044694F831009C
:1043B00000F01000F8B994F8310040F0100084F8D3
:1043C0003100606A10B12046FEF70AF894F8310017
:1043D00000F0010040B194F8310000F0200018B165
:1043E000211D2046FEF742FC00BFE06910B12046C7
:1043F000E169884700BF10BD09B9002200E00A68E2
:104400008260704710B5044694F8310000F0010056
:1044100090B914F8310F40F00100207014F8310900
:1044200000F0100040B194F8310000F0200018B105
:10443000211D2046FEF71AFC10BD2DE9F05F8346D2
:104440000F469046BBF1000F09D0BBF1010F08D019
:10445000BBF1020F07D0BBF1030F08D105E03626F0
:104460000AE0222608E00E2606E0002604E000BF4F
:1044700000BF0020BDE8F09F00BFB8F1000F68D07A
:10448000B8F1010F74D0B8F1020F72D0B8F1030F78
:1044900070D10820FFF7B0FE04460CB90020E9E710
:1044A00084F80C800020206006F110002044C01C1D
:1044B00020F00300606000BF00BF2781F01C20F0E7
:1044C0000300C0F5FA70B84201DD384604E0F01C84
:1044D00020F00300C0F5FA70608100BF00BF00BF8C
:1044E00000BF0120E081A2466089A7EB00092CE013
:1044F0000820FFF781FE054625B9204600F02CF97B
:104500000020B7E785F80C80002068732860CAF89F
:10451000005000BF00BFA5F808901FFA89F0B0F561
:10452000FA7F02DA1FFA89F001E04FF4FA7068812D
:1045300005F11000686000BF00BF00BF00BF012090
:10454000E8816889A9EB0009AA46B9F1000FCFDC20
:1045500035E006F1130121F00302F91C21F00301FB
:10456000114488B2FFF7FAFC044624B9002081E721
:1045700011E011E01FE004F110003044C01C20F0F5
:1045800003006060278167810020206084F80C8030
:1045900000BF00BF13E000BF0720FFF72DFE044659
:1045A0000CB9002066E700206060278167812060E9
:1045B00084F80C8003E000BF00BF00205AE700BF72
:1045C0000120E08100206073204653E7F0B50546E6
:1045D0000C46DDE9056735B1012D06D0022D06D068
:1045E000032D08D105E0362109E0222107E00E2144
:1045F00005E0002103E000BF00BF0020F0BD00BFC8
:10460000C81C20F003002044B84201DD0020F5E77B
:10461000002018602EB1C81C20F003003044586000
:1046200001E000205860022058731C815C811A73DD
:104630000120D8811846E1E710B5024600BF02B15B
:1046400001B910BD00BF104604E003890C89234462
:10465000038100680368002BF7D100BF00BF00BFD3
:1046600000BF03890C8923440381016000BFE8E790
:1046700030B505460C4621462846FFF7DDFF2046AB
:1046800000F028F930BD0146002002E0421CD0B203
:1046900009680029FAD170472DE9F04105460C461A
:1046A0000026002700BF25B11CB128892189884236
:1046B00003DA6FF00D00BDE8F08100BF00BF68892C
:1046C000801B6189C91B884204DB6089C01B1FFAFB
:1046D00080F803E06889801B1FFA80F86268D119AE
:1046E0006A6890194246FBF76BFD06EB080086B23C
:1046F00007EB080087B200BF00BF00BF00BF6089A2
:10470000B84201DC002724686889B04208D100263D
:104710002D6800BF1DB914B16FF00D00CBE700BFCD
:1047200054B160892189884206D100BF206810B148
:104730006FF00500BFE700BF55B16889298988423D
:1047400006D100BF286810B16FF00500B3E700BFC5
:10475000002CB4D10020AEE72DE9F047044624B97F
:1047600000BF00BF0020BDE8F08700BF00BF0026EB
:1047700031E000BF00BFE089401E1FFA80F8A4F8B6
:104780000E80B8F1000F24D12768257B607B00F0F4
:10479000020038B1A14600BF00BF2046D9F8101072
:1047A000884712E0032D04D121460820FFF7E2FCE0
:1047B0000BE0012D01D0022D04D121460720FFF787
:1047C000D9FC02E02046FFF773FB701CC6B23C46E2
:1047D00000E0002400BF002CCBD13046C3E770B509
:1047E000024600BF00BF01B10AB9002070BD002918
:1047F00008DA484284B200BF5089A04201DA0120A1
:10480000F4E700E08CB2137B55680BB1032B0AD19F
:104810005068401A506002F110005668864215D266
:1048200055600120E2E7022B01D0012B0AD10029BB
:1048300006DA5089A04203DB5068401A506005E058
:104840000120D3E700BF00BF0120CFE75089084413
:1048500050811089084410810020C7E72DE9F041FC
:1048600006460F4600BF00BF00BF00BF3089B842F8
:1048700001DCBDE8F0813089A7EB00083D463446F5
:104880000AE06089281A85B200BF00BF2089404431
:104890002081246800BF00BF6089A842F1DB207B33
:1048A00060B96089A84209D0A088001B284481B261
:1048B0002046FFF7C9FB044600BF00BF6581608941
:1048C0002081206810B12068FFF746FF002020609B
:1048D00000BFCEE710B1C189491CC18170472DE9E5
:1048E000F04704460E469146C8464FF0000A00BF06
:1048F00014B90020BDE8F08700BF00BF0EB900204A
:10490000F8E700BF1CB116B12089484502DA6FF004
:104910000D00EFE7254615E000BF00BF4746688958
:10492000B84200DA6F8906EB0A013A466868FBF77D
:1049300047FCA8EB07001FFA80F80AEB07001FFAF4
:1049400080FA2D68B8F1000FE6D100BF00BF00204B
:10495000D0E7000030B500BF00BF00BF00BF00BF00
:1049600000BF00BF00BF0388194C24681919884292
:1049700015D00B799BB9174B1B6899420FD0164B7A
:104980001B688B4201D1144B18600B880380104BBD
:104990001B88C31A0C880E4D2D682C4463804388F5
:1049A0000B4C24681A19824211D013797BB90A4B37
:1049B0001B68834201D1084B1A6003881380044BA3
:1049C0001B88D31A0488024D2D682C44638030BDA7
:1049D0005C00002060000020640000202DE9F0470A
:1049E00005468A460027D5F8048098F809900026E5
:1049F000144804681FE0207C48451AD134B120686F
:104A000020B1114920680968884212D1606980B1DB
:104A10000E4B2A462146D4E905C0E04748B100259F
:104A2000012736B1E068F06006480068E06005489C
:104A300004602646E4680FB9002CDCD13846BDE896
:104A4000F087000074000020C8000020C40000208F
:104A50002DE9FC4704460E4600BF00BF207E0A2811
:104A600008D121461C4800F0B7FF21460220FFF77D
:104A700081FB2FE0276DD4F82880D4F88850D4F833
:104A8000109000BF2146154800F0A6FF01201449F0
:104A9000087000BF206F10B1206F01F0F9FEE06ECA
:104AA00010B1E06E01F0F4FE4EB1A08B618B231DBE
:104AB0002246CDE900104146384601F09EFE2146CF
:104AC0000220FFF757FB00BF1DB16FF009014846F8
:104AD000A84700BFBDE8FC878C00002088000020AC
:104AE0009400002010B5044601212046FFF7B0FFD6
:104AF00010BD000070B506460220FFF77DFB04469E
:104B00007CB900F0A5FC0220FFF776FB04463CB917
:104B1000304600F073FC0220FFF76EFB044600BF36
:104B200000BF002C3AD094212046FBF762FB1034E2
:104B3000667241F2D060A4F856000020A4F8580034
:104B400040F66830A083E083002004F8070CFF20C3
:104B500004F8060C4FF40670E0840620A0860020BE
:104B6000208606206086C01FA0840120A08700F058
:104B700025FD0546A5642564A563E564084800682D
:104B800060610848007860740020E0730648E066C1
:104B90000648E067002084F88200103C204670BD83
:104BA0007C00002096000020BD66000800DD6D003E
:104BB00010B50446207E012803D0A07F40F01000ED
:104BC000A0770121204600F001F810BD7CB5044615
:104BD0000E46002E5BD0207E042802D0207E0728BF
:104BE00055D1606F20B9A08D40F6683188424ED013
:104BF00000BF00BFA08B618BCDE90010231D2246B2
:104C0000A16A206D01F0F9FD204600F0C5FE00BF4D
:104C100000BF5A480068A04205D158480068C068E3
:104C20005649086018E055480068554908600EE08C
:104C300053480068C068A04204D15149E06809683F
:104C4000C86008E04E480068C0684D4908604C489C
:104C500000680028ECD100BF0020E06000BF012008
:104C60004849087000BF207E04280AD10A20207617
:104C700000BF45480068E0604348046001F060FE02
:104C800003E021460220FFF775FA00207CBD207E5C
:104C9000082868D2DFE800F004343F4F5767675FA9
:104CA0000025608B30B300BF38480068A04205D1B2
:104CB00036480068C0683549086018E03348006825
:104CC0002F4908600EE02E480068C068A04204D159
:104CD0002B49E0680968C86008E029480068C06896
:104CE00027490860264800680028ECD100BF002052
:104CF000E06000BF21460220FFF73CFA002435E0C7
:104D000000252146224800F067FE21460320FFF7D8
:104D100031FA00242AE0002500BF2146174800F0A0
:104D20005BFE01201749087000BF21460220FFF7F3
:104D300021FA00241AE0204601F0DDFD05460DB9F8
:104D40000520207612E0204601F0D5FD05460DB97C
:104D5000052020760AE0204601F0CDFD05460DB97C
:104D60000920207602E00025002400BF00BF1CB10E
:104D700015B9204600F030FC284687E7880000205F
:104D800090000020940000208C0000208000002073
:104D9000840000202DE9F05F07460E4691469A46B2
:104DA000DDF8288008F0010008B1042000E00020B0
:104DB00008F0020109B10C2100E00021451804208F
:104DC000FFF71AFA041E05D13046FFF7C5FC002094
:104DD000BDE8F09F84F80A8000202060666030897A
:104DE000401B208114213046FFF7F9FC20B12046FA
:104DF00001F041FD0020EBE760684068E060788BDF
:104E0000FEF7D7FFE1680880B88BFEF7D2FFE168B4
:104E100048805046FEF7C0FFE1684860AB46E9179E
:104E200005EB91718910491D49EA013188B2FEF7FD
:104E3000C0FFE16888810020E16848822046C7E71A
:104E40002DE9F04105460E463046FEF709FE0446C0
:104E500054B1208D40B1208D283887B2BD4201DA8F
:104E6000284600E0384605462846BDE8F0812DE991
:104E7000F84304460D460027B84600BF00BFB4F80B
:104E80006800082805DAB4F868004FF6FC7188421B
:104E900007D9A07F40F08000A0774FF0FF30BDE839
:104EA000F88305F0020000B1012707F0010008B106
:104EB000042000E0002007F0020109B10C2100E00D
:104EC000002100EB0108B4F8660010B94FF0FF3084
:104ED000E5E7002241461046FFF7AFFAB0F10009BE
:104EE00006D1A07F40F08000A0774FF0FF30D6E7DA
:104EF00000BF00BF00972A4649462046E36DFFF7F2
:104F000049FF061E05D1A07F40F08000A077701EEB
:104F1000C5E700BF00BF00BF00BFE06E08B9E6668E
:104F200007E0E06E00E0006801680029FBD1066040
:104F300000BF0020A4F86A0005F0020010B905F0D7
:104F4000010038B1E06D401CE065B4F86600401E19
:104F5000A4F8660005F0010018B1A07F40F0200021
:104F6000A0777068FFF78FFB34F8681F0844208033
:104F700034F8680908B100BF00BF00208FE70000C7
:104F80002DE9FC4706468A46FE4970680860FD48E0
:104F900071680068007800F00F0001EB8000FA49AA
:104FA0000860F848006800780007800E41423046EB
:104FB000FFF715FC10B93089142800D211E2F3492B
:104FC00008685146FEF7A0F828B9F048007800F0CC
:104FD000F000E02800D104E2EB4909688889FEF777
:104FE000F4FE4FEA20394FEA890041423046FFF78C
:104FF000F6FB00B1F5E1E44909680888FEF7E5FE33
:10500000E14909680880E04909684888FEF7DDFE43
:10501000DD4909684880DC4909684868FEF7CFFE29
:10502000D94909684860DA490860D7490968886839
:10503000FEF7C5FED44909688860D6490860D249A0
:105040000968C889FEF7C1FECF490968C881CE4901
:1050500009688889FEF7B9FE00F03F00CE49087064
:105060003089097801F0030109B1012100E0002134
:105070000844CA4908800027C94804682AE000BFDC
:1050800000BF00BF00BF00BF00BFA08BBE490968C2
:10509000098888421CD1608BBB49096849888842CD
:1050A00016D1C04960680968884211D1B7492068A3
:1050B000096888420CD100BF00BF37B1E068F860D2
:1050C000B7480068E060B648046000BF00BF03E076
:1050D0002746E468002CD2D100BF002C4DD1B24845
:1050E000046820E000BF00BFA08BA74909680988B9
:1050F000884217D1608BA44909684988884211D138
:10510000A8496068096888420CD1A04920680968EC
:10511000884207D1204601F015FC3046FFF71CFB02
:10512000BDE8FC87E468002CDCD100279F480568B7
:1051300010E0688B944909684988884208D19349EE
:1051400028680968884202D00DB1286800B903E0D8
:105150002F46ED68002DECD100BF75B137B1E8687E
:10516000F86092480068E86090480560284600F0C2
:105170008DF93046FFF7F0FAD2E7002C76D0002008
:105180008B49086030890881084646607E4800687F
:10519000C860002087490860874908707E48007809
:1051A00000F0080018B1707B40F001007073606F70
:1051B00058B1204600F01EFF0A3028B1606F20B1C0
:1051C00076480088002800DDB9E07C48046020466D
:1051D00000F04AFC804608F10A00002817D0764803
:1051E000007800F0080098B100BFD4F8880028B11A
:1051F0006FF00A01D4F888202069904700BF21464B
:10520000674800F0E9FB21460220FEF7B3FF95E076
:105210006948007800F01000B8B1A07F00F01000DD
:1052200050B900BFD4F8880028B16FF00B01D4F852
:1052300088202069904700BF2146594800F0CCFBE8
:1052400021460220FEF796FF78E04FF00008B4F800
:105250006400002812DD00BFA06F40B1B4F86420E4
:105260002146A36F20699847804602E077E04FF01F
:10527000000800BF08F10A0000B960E04D4800686E
:1052800068B300BF00BFA07F00F0100038B14948EC
:105290000068FFF761FA2046FFF724FC4FE000BFEB
:1052A000E06F48B100234349D4F87CC020690A6804
:1052B0002146E047804607E000233E482146026839
:1052C000184601F0FBF9804600BF08F10A0000B95A
:1052D00035E0B8F1000F02D0364800686067364804
:1052E000007800F0200018B3606F30B1606F407B31
:1052F00040F02000616F48731AE0A08D40F66831DD
:10530000884202D0A08D401CA08500BFE06F40B154
:1053100000231A462146D4F87CC02069E047804625
:1053200001E04FF0000800BF08F10A0000B906E0F4
:10533000002022490860204600F04EF900BF0020FE
:105340001E4908601B49086019484068C0B31849E5
:105350004868FFF701FA0020154948603EE00A4915
:1053600009688889FEF731FD00F0040048BB064853
:1053700000680088044909684988CDE9001004489C
:1053800000681FE0A00000209C000020C800002052
:10539000A4000020A8000020AC000020AE000020E7
:1053A00088000020C40000208C0000208400002021
:1053B0003CAC0020B4000020B0000020B800002069
:1053C0000CE008E0094A12888118094B094A0A488A
:1053D000006801F012FA3046FFF7BEF900BF00BFC7
:1053E0009EE63046FFF7B8F900BF99E6AE00002010
:1053F000C4000020C8000020A80000202DE9F041D2
:1054000006464FF07F08002700250F48046813E088
:10541000607EB0420FDC607E40450CDC0B49606A68
:105420000968081AB84206D30849606A09680F1A61
:10543000254694F81980E468002CE9D115B1284676
:10544000FFF750FBBDE8F081880000207C000020C1
:1054500070B5002600250B4804680BE00A49606A15
:105460000968081AB04204D30749606A09680E1A2D
:105470002546E468002CF1D115B12846FFF732FB30
:1054800070BD00008C0000207C0000207CB505462B
:105490004148007800F0040008B100207CBD3E487F
:1054A000007800F0100098B13C48006800883B4943
:1054B00009684988CDE9001039480068394A1288DE
:1054C0008118394B394A3A48006801F096F961E091
:1054D0003148007800F0020000285BD0687EFFF7BA
:1054E00009FB044614B94FF0FF30D7E72F48006896
:1054F0002060688B60832C480068606027480068E3
:105500000088A0830320207625480068401CA06204
:10551000A06A206321480068C089A4F860001F4881
:105520000068C089A4F86200B4F86000A4F84E00D6
:105530001B480068401E60652869206168696061D9
:10554000287A00F08C00207200BF00BF1948006864
:10555000E0601848046001F0F3F900BF012016492B
:10556000087000BF204600F0BBF9E08E211DFFF758
:1055700067FCE08612212046FFF779FC06462EB133
:1055800000212046FFF764FA304687E7204600F006
:1055900023F883E7002081E7AC0000209C00002076
:1055A000A4000020AE000020C4000020C80000209D
:1055B000A800002088000020940000200448006813
:1055C00004490968084402490860084600687047B1
:1055D000980000207C0000202DE9F047044600BF21
:1055E00000BF6C480068A04202D10020BDE8F087EF
:1055F000B4F86000B4F84C10884202DAB4F86000E5
:1056000001E0B4F84C008146E56EA07F00F0020096
:1056100070B14DB1E9684868FEF7D1FBA16C401A42
:1056200029890844484503D9204601F03DF9DDE7C2
:10563000266F26B100E0366830680028FBD191E083
:1056400000BFE9688889FEF7C0FB00BF206FA0B1EA
:10565000A07F00F0440080B9E06E38B1E06E0068D1
:1056600058B9E06E0089E18E884206DAB4F8660027
:1056700018B1B4F86800082801DB012000E0002020
:1056800020B9A07F00F0A00000B977E02868E066AC
:10569000207E02280BD01020FEF78BFBE968898959
:1056A0000843E9688881A07F20F00300A0772146A5
:1056B000284600F0ADF8E9684868FEF780FB074629
:1056C000E9688889FEF781FB00F0030008B101203A
:1056D00000E000202989084407EB0008206DB0EBAA
:1056E000080001D5C4F85080E9688889FEF76DFB91
:1056F00000F0030008B1012000E0002029890844DF
:1057000000282BDD00202860206F10B925672E4669
:1057100027E0E9684868FEF752FB0746F1684868E9
:10572000FEF74DFB381A16D504F1700700E03F680C
:10573000386860B13968C9684868FEF740FB82463E
:10574000E9684868FEF73BFBBAEB0000EFD4386825
:1057500028603D6005E03560366802E0284601F0CB
:105760008AF8E56E55B1E9684868FEF728FBA16C38
:10577000401A2989084448457FF662AF00BFE06EB1
:1057800010B90020A4F86A00A07F20F08000A07764
:1057900000202BE7B80000202DE9F04705460E4613
:1057A0009046994606F11400404481B2002201203F
:1057B000FEF743FE074647B300BF00BF7C68688B17
:1057C000FEF7F7FA2080A88BFEF7F3FA6080C4F8A2
:1057D0000490A86AFEF7E0FAA060B246F11706EB63
:1057E00091718910491D102242EA013188B2FEF7F9
:1057F000E0FAA081E88DFEF7DCFAE081002020824B
:105800006082E98DA86A084428633846BDE8F087BD
:105810002DE9FC4705460C46A06AFEF7BDFAE9688B
:105820008860E08DFEF7C5FAE968C881E18DA06A5D
:1058300008442063E86800F11408A87A00F0010029
:1058400070B1211D40F2B450FFF7FAFA814649F0D9
:105850000170FEF7A1FAC8F8000008F1040800BFC3
:10586000B4F93400401C08B90020A0860CB12068AF
:1058700040B9201DFEF7F4F806460EB9BDE8FC87D6
:1058800070682060A06B38B914480068A063E968AC
:105890004868FEF794FAE063A88969688988401A25
:1058A00087B268684089C01B696848816868008958
:1058B000C01B696808816968E86848600020E96879
:1058C00008820621607ACDE90001A37A221D2146D3
:1058D0006868FDF701FE00BFD0E700007C000020F3
:1058E0002DE9F04780462B48006800F1140529494E
:1058F00009688889FEF769FA0521B1EB203F46DA8D
:10590000244909688889FEF760FA0521C1EB203037
:105910004FF6FF7101EA8006002436E015F8049086
:10592000B9F1000F06D0B9F1010F05D0B9F1020F9E
:1059300021D104E0BDE8F087601C84B224E0601C43
:10594000285C042802D1201DB04200DDF2E7E01CF3
:10595000295CA01C285C41EA002740F2B450874231
:1059600000DC17B940F2B45000E03846A8F8360021
:10597000201D84B208E0601C285C00B9DAE7601CD6
:10598000285C204484B200BF00BFB442C6DB00BF25
:10599000D0E700009C00002010B50446207ED0B166
:1059A000207E0A2817D0207E012814D0606F20B1F5
:1059B000606FFEF7D1FE002060674FF0FF30A086D9
:1059C000E06E00F065FF206F00F062FF0020E066EF
:1059D0002067A4F86A0010BD70B505460C4600BFEC
:1059E0002868A04203D12868C068286017E01D49D4
:1059F000286808600EE01B480068C068A04204D117
:105A00001849E0680968C86008E016480068C0687E
:105A100014490860134800680028ECD100BF00203A
:105A2000E06000BF2046FFF7B7FF207E0A280DD0B8
:105A3000207E01280AD0A07F00F0010030B1A07FB5
:105A400040F00200A0772046FFF7C6FD207E012827
:105A500003D000BF00BF00BF00BF0020207600BF02
:105A600000BF70BD900000202DE9FC4104464FF0BE
:105A700000080026FE48007800F0040070B3207E85
:105A8000022807D1FB49206D0968884211D14FF0E7
:105A900001080EE0F849A06A0968081A09D4A18D26
:105AA000A06A0844F4490968081A002801DC4FF08C
:105AB0000108B8F1000F0FD000BF00BFEF48007819
:105AC00040F00800ED490870A07F20F00100A077A9
:105AD0006FF00A00BDE8FC810020FBE7E448007895
