:020000040800F2
:1000000068C400209D01000819130008A111000810
:100010007D12000881020008311A0008000000006B
:10002000000000000000000000000000AF01000818
:100030003104000800000000B301000801160008A8
:10004000B7010008B7010008B7010008B7010008B0
:10005000B7010008B7010008B7010008B7010008A0
:10006000B7010008B7010008B7010008B701000890
:10007000B7010008B7010008B7010008B701000880
:10008000B7010008B7010008B7010008B701000870
:10009000B7010008B7010008B7010008B701000860
:1000A000B7010008B7010008B7010008B701000850
:1000B000B7010008B7010008B7010008B701000840
:1000C000B7010008B7010008B7010008B701000830
:1000D000B7010008B701000881170008B701000840
:1000E000A90E0008B7010008B7010008B701000811
:1000F000B7010008B7010008B7010008B701000800
:10010000B7010008B7010008B7010008B7010008EF
:10011000B7010008B7010008B7010008B7010008DF
:10012000B7010008B7010008B7010008B7010008CF
:10013000B7010008B7010008B7010008B7010008BF
:10014000B7010008B7010008B7010008B7010008AF
:10015000B7010008B7010008B7010008B70100089F
:10016000B7010008B7010008B7010008B70100088F
:10017000B7010008B7010008B7010008B70100087F
:10018000B7010008B7010008DFF80CD000F066F8EE
:1001900000480047F532000868C400200648804740
:1001A00006480047FEE7FEE7FEE7FEE7FEE7FEE75C
:1001B000FEE7FEE7FEE7FEE70516000889010008F6
:1001C00040EA01039B0703D009E008C9121F08C0D9
:1001D000042AFAD203E011F8013B00F8013B521E59
:1001E000F9D27047D2B201E000F8012B491EFBD2D0
:1001F00070470022F6E710B513460A460446194632
:10020000FFF7F0FF204610BD421C10F8011B00292B
:10021000FBD1801A704730B504460020034600E049
:100220005B1C934203D2E05CCD5C401BF8D030BD38
:1002300030B50B46014600202022012409E021FAB6
:1002400002F59D4205D303FA02F5491B04FA02F5B3
:100250002844151EA2F10102F1DC30BD064C074D09
:1002600006E0E06840F0010394E807009847103486
:10027000AC42F6D3FFF78CFF005700082057000868
:10028000FEE7A0F52D7000F50050002202804280AC
:10029000818070470029016802D041F0010101E02E
:1002A00021F00101016070472DE9F043016821F060
:1002B000010101600021016041608160C160016154
:1002C000212141613C493C4A3D251039904202D1EF
:1002D0008D60BDE8F083384A4FF47466183290425E
:1002E00001D18E60F5E7344A4FF4741730329042F2
:1002F00001D18F60EDE7304A4FF0746C4832904284
:1003000002D1C1F808C0E4E72B4B2C4A6033984275
:1003100001D1CA60DDE7284C294B7834A04201D1D5
:10032000CB60D6E7DFF89080264C08F19008404576
:1003300001D1CC60CDE7DFF880804FF03D5908F166
:10034000A808404502D1C1F80C90C2E71E49DFF869
:1003500078800839404501D10D60BAE71A4D18354B
:10036000A84201D10E60B4E7174D3035A84201D143
:100370000F60AEE7144D4835A84202D1C1F800C065
:10038000A7E7114D10496035091FA84201D10A6045
:100390009FE70D4A7832904201D10B6099E70A4AF3
:1003A0009032904201D10C6093E7074AA832904204
:1003B0008FD1C1F800908CE7106002403D00002012
:1003C000400F002000003D20106402400146002044
:1003D0000968C90700D001207047000030B50368E4
:1003E000124ACC6813400A682243D1E905452C43E0
:1003F0002243CC6922430C6A22434C6A22438C6A12
:1004000022434C6B22438C6B22431A4302604269A5
:1004100022F00703D1E90B2422431A4342610A69FF
:1004200042604A6882608968C16030BD3F801CF0CC
:100430007047000003494A68104408614A689042C6
:10044000FCD870470000002070B5214C00252178B1
:1004500007290ED2DFE801F004080E12161A200058
:10046000EB2806D1012015E0902801D1022011E0EF
:10047000257070BDFD28FBD103200BE00D28F7D1BE
:10048000042007E000026080052003E06188084442
:1004900060800620207070BD6288AAB10D4BE168B3
:1004A0005854491CE1609142F5DB032289B21046A1
:1004B00003F05AF90646A089064982B2304603F095
:1004C00001FB304600F076FF2570E56070BD00004E
:1004D00000000020CC07002010B50C46034600F0B9
:1004E00053FD08B1002010BD03F58052B2F84C0D49
:1004F000185C2070B2F84C0DB2F8501D401CB0FBD7
:10050000F1F301FB1300A2F84C0D012010BD000017
:100510007FB5042001F068F8684600F097FF019865
:100520006421B0FBF1F14FF0FF35B1F1807F0DD2C6
:1005300021F07F404FF0E024401E60610F212846EB
:1005400000F028FF0020A06107202061002128463C
:1005500000F020FF00F0DAF800F0B2FA10210120DC
:1005600000F078FBC00704D00548416841F0100155
:100570004160012000F082FD00F02CFD7FBD0000F5
:10058000140000201A4A51680B681046002B80683E
:100590000DDB0B68DB050AD583685B1C8360836811
:1005A000012B00D1016051684160012070470B6848
:1005B000002B0DDB0B689B050AD50B68DB0507D408
:1005C000016000214160012181605068C0680CE039
:1005D0000B68002B0ADB0B689B0507D40B68DB0557
:1005E00004D483685B1C8360C86850600020704737
:1005F000B800002005490028886902D040F00200B8
:1006000001E020F002008861704700000090024085
:10061000F0B5124E00244FF0004744F2F45C551E32
:10062000706013E000EB44131F60C4EBC41E0EEBBC
:100630004E0E01EB8E0EC3E901CEAC4204D203F1A3
:10064000200EC3F80CE000E0D860641C9442E9D3AB
:100650000349C8600348B060F0BD0000B800002046
:10066000009002405CC0002005490028886902D043
:1006700040F4005001E020F4005088617047000011
:1006800000900240F0B50F4C00234FF48016551E29
:10069000206011E000EB43142660C3EBC31707EBA7
:1006A000470701EB8707A760AB4203D204F120079D
:1006B000E76000E0E0605B1C9342EBD30249086115
:1006C000F0BD0000B80000200090024002680A431C
:1006D0000260704710B501214C06204600F092FEE2
:1006E0002046BDE81040002100F08CBE38B5064C15
:1006F000A06940F48010A061A06900900120FFF77C
:1007000099FE0098A06138BD009002401CB50121FF
:10071000072000F06BFE0121880300F08BFE012012
:1007200000F0DEFE03208DF8050002208DF80400A5
:1007300000208DF806008DF807008620214C0090DF
:100740006946204600F0C7FC0B220121204600F03C
:1007500013FD0B220221204600F00EFD0B22072183
:10076000204600F009FD3220174C009069462046D3
:1007700000F0B1FC0B220121204600F0FDFC0B2211
:100780000421204600F0F8FC0B220521204600F051
:10079000F3FC4FF460500D4C00906946204600F089
:1007A0009AFC0B221146204600F0E6FC0B220C219D
:1007B000204600F0E1FC0B220D21204600F0DCFC7D
:1007C0001CBD00000000024000080240000402407E
:1007D000034900200968C90700D0012070470000C4
:1007E0000090024030B5074A536819689468C1F315
:1007F0000D4125682468A468DB68091F536080E800
:10080000320030BDB80000202DE9F04788B0002646
:10081000044601200096964DCDE9056028698A4678
:1008200020F01C0701A800F011FE92490298924A9C
:100830000144914202D247F0080716E08F49904ADE
:100840000144914202D247F00C070EE08D498E4AD6
:100850000144914209D38D4908448D49884202D20E
:1008600047F0040701E047F010072F614FF4004202
:100870000021504600F088FA4FF400684FF4804998
:10088000A0B1FF20FFF7D6FD206898B3814F0598EF
:100890000121401C0590504600F0DCF9400702D4CD
:1008A0000598B842F3D30598B84201D106963CE0CA
:1008B0004FF4805200215046059600F065FA00B9C9
:1008C000069605980121401C0590504600F0C2F99B
:1008D000800602D40598B842F3D30598B842E5D013
:1008E00010215046059600F0B5F9410703D5C4F82C
:1008F000208001E007E02662800701D5666112E0F2
:10090000C4F814900FE0206A6169C00840EA510001
:1009100082B20021504600F037FA00B9069640F640
:10092000FF70FFF787FD069818B9C4F81490C4F853
:100930002080296858480140D4E901021043E26848
:1009400054F8103F1A43104362681043A2681043E2
:10095000E26810432269104354F8142F1043626870
:100960001043A2681043E268104322691043084311
:1009700028602E680120FFF75DFD2E60F4E9050177
:100980000843D4E90212114308432169084361690D
:100990000843A1690843E169084368606E68012063
:1009A000FFF748FD6E60206AA860606AE860A96988
:1009B0004FF641700140D4E90B021043238D626B66
:1009C00042EA03421043A26B1043E26B1043084318
:1009D000A861AE690120FFF72DFDAE61D4E91001D9
:1009E0000843E861EE690120FFF724FDEE612B4D1D
:1009F000A9692B480140D4E912021043D4E9142319
:100A00001A431043A26D1043E26D1043226E10434F
:100A1000626E1043A26E10430843A861AE690120C4
:100A2000FFF708FDAE61D4E91B010843616F54F87C
:100A3000782F11430843616840EA8100A1680843A8
:100A400040F4000028602C680120FFF7F3FC2C60C4
:100A5000286840F0800028602C680120FFF7EAFC3D
:100A60002C600698012800D0002008B0BDE8F0876F
:100A70000080024000D3CEFEC0E1E40040F1E9FD79
:100A800040787D0100796CFC005A6202001F0AFA6E
:100A900080F0FA02FFFF04000F8120FF0090024067
:100AA000233FDEF8054B8A88184402640A78D1F89F
:100AB000011042EA012141647047000000800240B9
:100AC00010B501214FF0606000F090FCFFF702FECE
:100AD00000F0ECF8FFF77CFE0128FBD0174800F08F
:100AE0000FF9164801214FF4007240F81C1B002139
:100AF00040F80C1BE0E80321520041600161816174
:100B0000C161016240F8102CD20313118365C0E962
:100B10001312016641660421C0E91B128903416773
:100B2000890181674912C1674900C0F88410012119
:100B30000248FFF769FE0249486010BD602C0020A2
:100B40001400002038B50021094C009100282068CD
:100B500002D040F0040001E020F004002060206892
:100B600000900120FFF766FC0098206038BD00006F
:100B70000080024038B50021094C0091002820680F
:100B800002D040F0080001E020F00800206020685A
:100B900000900120FFF74EFC0098206038BD000057
:100BA00000800240F0B5294E002431680A68002A0E
:100BB00001DA0020F0BD40F2F453984215D9B0FBA1
:100BC000F3F5B0FBF3F203FB150505B1521C012A46
:100BD0000BD0C2F10107C7EBC71707EB470700EBC4
:100BE0008700551EC0F30C0023E00A6842F0405213
:100BF0000A60C0F30C004860086840F000400860DC
:100C0000C96818E00F6827F040570F601CB90F68DB
:100C100047F080570F604B60AC4204D10F6847F03B
:100C200000570F6048600F6847F000470F60C968C1
:100C3000641C9442E6D3064831604169490703D5F4
:100C400004214161002141600120F0BDB800002075
:100C50000090024018B500220092124A13694FF624
:100C6000FF7403F01C0304EAC02018434FF4F86338
:100C700003EA8111014321F0020040F001001061FC
:100C800009480099491C00911169C90702D00099CF
:100C90008142F6D30099814201D1002018BD5069EC
:100CA00080B218BD00800240FFFF040002480168C6
:100CB00041F00101016070470090024010B5012031
:100CC000FFF758FF0120FFF73DFFFFF70FFD012061
:100CD000FFF7CAFCBDE810400120FFF78BBC10B540
:100CE0000020FFF7C1FC0020FFF784FC0020FFF785
:100CF00029FFFFF7FBFCBDE810400020FFF73ABFDB
:100D0000012101600021416081604FF48042C16097
:100D1000C0E90412D2108161C0E907124162816208
:100D2000C1620163416340228163C0E90F12202246
:100D3000C0E91121C1640165416581658022C165F9
:100D4000C0E918128166C16601674167D2048167F4
:100D5000C0E91F125210C0E921211311C0E923314B
:100D6000C0F89410C0F89810C0F89C10C0E9281280
:100D70005212C0F8A8209201C0F8AC205212C0E96B
:100D80002C21C0F8B810704738B500230093114BE0
:100D90001C694FF6FF7504F01C0405EAC0202043CF
:100DA0004FF4F86404EA8111014341F003005A61F1
:100DB000186109480099491C00911969C90702D0B6
:100DC00000998142F6D30099814201D1002038BDBB
:100DD000012038BD00800240FFFF04007FB50025E0
:100DE000039590F83100C00649D5284C206888B397
:100DF0004FF4805200210120FFF7C6FF244E0398D4
:100E00000121401C03900846FFF724FF800602D40E
:100E10000398B042F3D3102101200395FFF71AFF86
:100E2000410703D54FF40061216200E0256280078D
:100E300001D5656102E04FF480406061154E316874
:100E4000226A60691043084330600120FFF7F2FA1C
:100E500030683060FFF732FF0F4800906FF07F403E
:100E600001900E48029002AB01AA69460C4802F0BC
:100E7000D9FB0B4802F068FC0A4805707FBDFFF7FC
:100E80002EFF074802F0E4FB7FBD0000602C00202D
:100E9000FFFF040000800240C0A8016FC0A801014C
:100EA000282C00201400002010B54FF400442046E8
:100EB00000F022F838B10C48007808B904F03CFA88
:100EC000204600F013F84FF48044204600F014F858
:100ED000002807D0012000F0B1F82046BDE81040FE
:100EE00000F004B810BD00001400002001490860A3
:100EF00070470000143C0140064A01460020126879
:100F0000044B0A4014331B680B4202D0002A00D065
:100F100001207047003C014030B51A4983790268CE
:100F200053B30B6893430B600A1D13680468A34313
:100F3000136002790A441368046823431360114A5A
:100F4000083213680468A3431360131D1C68056806
:100F5000AC431C604479102C05D021440A68006819
:100F600002430A6030BD11680468214311601968AA
:100F700000680143196030BD00790844016891435D
:100F8000016030BD003C014000F58050B0F84C1DC0
:100F9000B0F84E0D814201D101207047002070470A
:100FA00070B50E46054600F084F808B1002070BD0B
:100FB00005F58054B4F84E0D2E54B4F84E0DB4F827
:100FC000501D401CB0FBF1F201FB1200A4F84E0DC5
:100FD000012070BD30B585B00121022000F006FA75
:100FE00001218D03284600F025FA00248DF80C40DD
:100FF0008DF80F4002A91048029500F06CF80E2100
:10100000012000F073FA8DF804400C208DF80500E3
:10101000012400958DF806406846FFF77DFF2820E3
:101020008DF810008DF811408DF8134004A800F0E1
:1010300075F905B030BD00000004024010B504464B
:101040001221FFF707FE800412D510212046FFF77A
:1010500001FEC00704D0BDE81040064802F04FBBB7
:10106000054901200870BDE81040024802F03ABB73
:1010700010BD0000282C00201400002010B50446EC
:101080001121FFF7E7FD40F0030211212046FFF791
:101090007BFE00280CD012212046FFF7DBFD40F03C
:1010A000200212212046FFF76FFE002800D0012009
:1010B00010BDA0F52D7000F5005041888288491CB4
:1010C000B1FBF2F302FB13110088814201D1012030
:1010D000704700207047F0B50023012403270D68F6
:1010E00004FA03F21540954242D1D0F800C05E00E8
:1010F00007FA06F52CEA050CC0F800C091F804C008
:10110000D0F800E00CFA06FC4CEA0E0CC0F800C067
:1011100091F804C0BCF1010F02D0BCF1020F1FD145
:10112000D0F808C02CEA050CC0F808C091F805C03A
:10113000D0F808E00CFA06FC4CEA0E0CC0F808C027
:10114000D0F804C02CEA020CC0F804C0426891F840
:1011500006C00CFA03FC1FFA8CFC42EA0C02426047
:10116000C268AA43C260CA79C568B2402A43C26055
:101170005B1C102BB3D3F0BD4B07DB0E9A40C908A4
:1011800010B500EB8100016A0F249C40A14301626D
:10119000016A1143016210BD4183704701837047AA
:1011A000FEE700001CB50121102000F01FF94FF4EC
:1011B0006040009001208DF8040003200B4C8DF856
:1011C000050069462046FFF786FF4FF40051204690
:1011D000FFF7E4FF4FF480412046FFF7DFFF4FF4B5
:1011E00000412046FFF7DAFF1CBD0000001002405E
:1011F00010B586B0002402F0D3F802F0B1F915481A
:1012000003906FF07F4004901348059013481449F1
:101210000094CDE9011005AB04AA03A9114802F01E
:10122000DBF9104802F00EFA0F48006811280D484B
:1012300007D002F00DFA0D490A4802F04FFA06B045
:1012400010BD10F8311F41F010010170054802F087
:101250007BFAF0E7C0A8016FC0A80101B52500081E
:1012600045260008282C002018000020DD0D00086D
:10127000014801F0FBB90000282C0020FEE7000027
:101280002DE9F04190B0044619480F46DDF858802A
:101290001D46164684424FF0010101D9880501E040
:1012A0004FF4001000F0A2F82046FEF7FDFF2046A4
:1012B000FFF78CF80028FAD14020CDE90250002138
:1012C000CDF810800001CDE905100791800108914B
:1012D000CDE909100320CDE90B10CDE900760D9181
:1012E0000E9169462046FFF779F810B0BDE8F0810D
:1012F0000064024000B50A4603460021FEF7CAFF1B
:101300001846FFF763F80028FAD15A600121184601
:101310005DF804EBFEF7BEBF7047000030B50F224A
:10132000C47801780123FCB1144C246801F1E02158
:1013300004F4E064C4F5E064C4F30724C4F10405D4
:10134000E2404478AC408578154025432A0181F875
:101350000024007800F01F018B404009800000F15C
:10136000E020C0F8003130BD01F01F008340480983
:10137000800000F1E020C0F8803130BD0CED00E0CD
:101380000249084302490860704700000000FA055E
:101390000CED00E00907090E002806DA00F00F0046
:1013A00000F1E02080F8141D704700F1E02080F883
:1013B00000147047002802D0014901F0FBB87047C3
:1013C000282C002010B50B46EB2119709021597084
:1013D000FD2199700D21D970110A19710146144629
:1013E0005A71981DFEF7ECFEA01D10BD044A00299D
:1013F000116801D0014300E0814311607047000093
:1014000030380240044A0029116801D0014300E04D
:10141000814311607047000010380240044A0029DF
:10142000116801D0014300E0814311607047000062
:1014300040380240044A0029116801D0014300E00D
:1014400081431160704700004438024070B5204A63
:101450001168204C11F00C0104D01F4E042903D058
:10146000082903D004601BE0066019E01849091F31
:101470000B68C3F380550B6803F03F0315B1B6FB4F
:10148000F3F301E0B4FBF3F30C680968C4F38814C8
:101490006343C1F30141491C4900B3FBF1F1016011
:1014A00011680F2303EA11110C4B5C5C0168E140E9
:1014B00041601468072505EA94241C5D21FA04F4B0
:1014C0008460126805EA52329A5CD140C16070BDF6
:1014D000083802400024F40040787D01A500002077
:1014E0000149C1F8DC0070470000274210B58A07A7
:1014F00021F003040849130F21440F22D1F80848B2
:101500009A409443C1F80848D1F80828984002430B
:10151000C1F8082810BD0000003001400CB50021C2
:101520002C4801910091026842F4803202604FF42D
:10153000A063026802F400320092019A521C0192E8
:10154000009A12B9019A9A42F3D1026892032DD5FA
:10155000012100911F4940310A6842F080520A601F
:101560001D490A6842F440420A601A4908310A6873
:101570000A600A6842F400420A600A6842F4A05213
:101580000A600B1F154A1A60026842F080720260FE
:1015900002689201FCD51248026841F20103114829
:1015A000B3EB124F04D140F2057203E000910CBD81
:1015B00040F205620260086820F0030008600868D5
:1015C00040F0020008600868C0F381000228FAD1E8
:1015D0000CBD000000380240007000401954400764
:1015E000002004E0003C02404FF0E021042808699C
:1015F00003D020F004000861704740F00400FAE7CF
:1016000000F04AB8124810B5016841F47001016059
:101610001048016841F0010101600E4A00210832C2
:10162000116002680C4B1A400260031D0B4A1A60DD
:10163000026822F48022026006480C300160FFF745
:101640006DFF03494FF000608039086010BD000055
:1016500088ED00E000380240FFFFF6FE1030002465
:10166000F8B54FF480440A4D0A4E05E0FFF794FDAB
:101670009DF80000FEF7E8FE6946B068FEF72CFF13
:10168000002821462846F1D1FFF788FDF8BD00006B
:101690000010024000000020024841680A31416009
:1016A000704700000000002070B58AB001210820BA
:1016B000FFF79CFE01211020FFF7BCFE2E4E0722F3
:1016C00009213046FFF758FD07220A213046FFF76F
:1016D00053FD02208DF8040003208DF8050001253C
:1016E000002468028DF8064000908DF80750694686
:1016F0003046FFF7F0FCA802009069463046FFF73D
:10170000EAFC07A800F0EAF81C4E07A9304600F0F2
:10171000D7F84FF4E1300290ADF810400C20ADF84E
:101720000C40ADF81200ADF80E40ADF8144002A91F
:10173000304600F023F94FF4A060FFF721FE25208A
:101740008DF818008DF819408DF81A408DF81B504F
:1017500006A8FFF7E3FD012240F22551304600F0D4
:10176000F4F840F22661304600F0A4F8012130463A
:1017700000F0BAF80AB070BD00000240001001404D
:1017800070B5144C40F225552946204600F0BEF8AD
:1017900058B1204600F048F9C1B20F488068FFF701
:1017A000FFFB2946204600F085F840F227752946C0
:1017B000204600F0ABF801280AD12946204600F067
:1017C00079F829462046BDE87040002200F0BDB8F7
:1017D00070BD0000004400400000002070B58AB0D9
:1017E00001210820FFF702FE01214804FFF716FE41
:1017F0002E4E072205213046FFF7BEFC07220621A8
:101800003046FFF7B9FC02208DF8040003208DF864
:101810000500002420208DF80640012500908DF859
:10182000075069463046FFF756FC40200090694655
:101830003046FFF750FC07A800F050F81C4E07A9EF
:10184000304600F03DF84FF4E1300290ADF8104022
:101850000C20ADF80C40ADF81200ADF80E40ADF81C
:10186000144002A9304600F089F84FF4A060FFF759
:1018700087FD26208DF818008DF819408DF81A4044
:101880008DF81B5006A8FFF749FD012240F22551B3
:10189000304600F05AF840F22661304600F00AF86F
:1018A0000121304600F020F80AB070BD000C024063
:1018B000004400400A0A01219140C9430180704759
:1018C00010B5028A4C8822F470630A8822438C88FF
:1018D000C9880C4322431A43028210BD00210180B3
:1018E00041808180C18070470029818902D041F404
:1018F000005101E021F4005181817047002A828A61
:1019000001D00A4300E08A438282704730B501F07B
:101910001F0201240025C1F3421304FA02F2012B35
:101920000FD0022B0FD0838A4FEA11210088134277
:1019300004FA01F400EA040001D000B101252846B0
:1019400030BD8389F0E7038AEEE710B5C1F3421397
:1019500001F01F040121A140012B07D0022B07D069
:101960001430002A026805D00A4304E00C30F8E77E
:101970001030F6E78A43026010BD00007FB50446D0
:10198000008A0D4620F44051E88808432082A0894F
:1019900041F20C618843A9882A8911436A8902436C
:1019A0001143A181A08A20F44071A8890843A08234
:1019B0006846FFF74BFD1A48844202D0194884421A
:1019C00001D1039800E00298A189090400EBC0014D
:1019D00001EB0010296801D5490000E08900B0FB47
:1019E000F1F26420B2FBF0F109010B096FF0180568
:1019F0006B4302EB8302A3891D044FF0320306D52B
:101A000003EBC202B2FBF0F000F0070005E003EBCD
:101A10000212B2FBF0F000F00F00084320817FBDFE
:101A200000100140001401408088C0F30800704796
:101A3000FEE700000FB4084B10B504A902AA0398F2
:101A400000F01CF8044602A9002000F0C1F820466E
:101A500010BC5DF814FB0000D11B000802E008C8B0
:101A6000121F08C1002AFAD170477047002001E018
:101A700001C1121F002AFBD1704700002DE9FF4F62
:101A800089B09B460446002506E025280BD05A461F
:101A90000B999047641C6D1C20780028F5D10DB07F
:101AA0002846BDE8F08F0027B8460122474900E0EC
:101AB000074314F8013F203B02FA03F00842F7D134
:101AC00020782E2819D114F8010F47F004072A288E
:101AD0000ED06FF02F022078A0F1300109290CD828
:101AE00008EB880102EB410100EB0108641CF2E7FE
:101AF0000A98641C50F8048B0A9020780028CED0F5
:101B0000642808D0692806D075281ED05A460B993B
:101B100090476D1C58E00A994FF00A0901C90A91D3
:101B2000002802DA40422D2102E0390504D52B219C
:101B30008DF82010012103E0F90704D02021F7E7F8
:101B40008A4608AE0DE00021FAE70A994FF00A092B
:101B500001C90A91F7E74946FEF76AFB303106F8FA
:101B6000011D0028F7D1ADEB060000F12009780730
:101B700001D44FF00108C84502DDA8EB090000E0E0
:101B800000208046002706E008A85A46C05D0B9951
:101B900090476D1C7F1C5745F6DB04E030205A4609
:101BA0000B9990476D1CB8F10001A8F10108F5DC14
:101BB00005E016F8010B5A460B9990476D1CB9F1D8
:101BC0000001A9F10109F4DC641C65E709280100A2
:101BD0000A68531C0B601070704700280BD0426AD3
:101BE000002A08D0137B082B05D10968526A91425C
:101BF00001D100F093B870472DE9F04117460C462B
:101C000006000CD07CB100224FF49A71104601F00E
:101C1000ABFD206150B1627B3E4952B10CE06FF0E8
:101C20000D00BDE8F0816FF00500FAE74FF0FF30DE
:101C3000F7E70A68521C0A600968216040680121C0
:101C400060610170606900254170616996F82A0041
:101C500088706069C570206801F018FB6169082F01
:101C6000486060690581606945816069C56008D028
:101C7000042F06D0032F07D1207B052801D004288C
:101C800002D161697068C860606905616069456119
:101C9000606985615FF0000096F82A10814203D9DF
:101CA000311891F82B1000E0002100F11C0263694B
:101CB000401C80B299541028EED3002000F12C0172
:101CC0006269401C80B255544028F7D35FF0000091
:101CD00000F16C016269401C80B255548028F7D332
:101CE00061690D48C1F8EC0025830020626900F1AC
:101CF000F0015054401C80B24428F7D30122352112
:101D0000204600F0D4F83946204600F0E0F80020E4
:101D100087E700002000002063825363F8B5446A1F
:101D200006460C21204600F073F904222146304675
:101D3000FFF762FF05001ED104223221204600F089
:101D4000B6F8606A01F0A6FA0146204600F0C7F82E
:101D5000204600F0F6F8208BF03081B2206901F0C7
:101D600084FE009643230A4A2169606803F052FC0E
:101D7000204600F00FF8607B4FF4FA71401C60734E
:101D800042F60310B0FBF1F060832846F8BD000076
:101D9000F056000810B5040006D0206908B101F023
:101DA0000CFE00202061606110BD0000F8B5446A9F
:101DB0000546002060620621204600F029F9012234
:101DC00021462846FFF718FF060030D102223921AC
:101DD000204600F06CF8298D204600F0A1F804227E
:101DE0003721204600F063F80121204600F06FF80B
:101DF0000321204600F06BF81C21204600F067F814
:101E00000621204600F063F8204600F09AF8208B67
:101E1000F03081B2206901F028FE00954323114A79
:101E20002169606803F0F6FB2046FFF7B3FF607B93
:101E3000401CC0B26073062802D20121814000E03C
:101E40003C2101EB4100C0EBC1104FF6FF7101EAEC
:101E5000C0004FF4FA7100F2F310B0FBF1F06083B0
:101E60003046F8BDF056000870B5446A0546002CAF
:101E70001CD0207B002604280FD004DC002815D0BD
:101E8000032804D109E0052807D00A2805D0667385
:101E90002846BDE87040FFF789BF284601F0D8FB0F
:101EA00066732846BDE8704000F062B870BD10B59A
:101EB000038B44691C445B1C038384F8F010018B82
:101EC00043690B44491C018383F8F02010BD028B49
:101ED00043691344521C028383F8F010704710B515
:101EE000028B44690B0E1444521C028384F8F030B8
:101EF000028B44690B0C1444521C028384F8F030AA
:101F0000028B44690B0A1444521C028384F8F0309B
:101F1000028B43691344521C028383F8F01010BDF6
:101F200010B5028B44690B0A1444521C028384F8D6
:101F3000F030028B43691344521C028383F8F01083
:101F400010BD002812D0018B4369FF220B44491CAD
:101F5000018383F8F020002205E043690B44491C0B
:101F6000018383F8F020018B4429F6D370470000E9
:101F7000F8B5446A06460321204600F049F80322DA
:101F800021463046FFF738FE050028D102223921CC
:101F90002046FFF78CFF4FF410712046FFF7C0FF7B
:101FA000042232212046FFF782FF606A01F072F9B5
:101FB00001462046FFF793FF2046FFF7C2FF208B24
:101FC000F03081B2206901F050FD009643230F4AA2
:101FD0002169606803F01EFB2046FFF7DBFE607B93
:101FE000401CC0B260730A2804D24FF47A7110FB0F
:101FF00001F001E042F2107080B24FF4FA7100F289
:10200000F310B0FBF1F060832846F8BDF0560008ED
:10201000027B8A4203D001730021417341837047E0
:102020002DE9F84F9046894605005ED0B8F80A00C1
:102030002A2857D3D8F804604FF4807A344634F80D
:102040000E0F50454ED1207906284BD160790428D7
:1020500048D16088082845D1D4F80E000090A169C5
:10206000281D06D0686820B1814202D101273B4675
:1020700001E00027022304F108026946284600F027
:102080005BFAE088504503D0B0F5007F2AD125E007
:102090001FB3022001F0FCF8E080D4F80E00A0612C
:1020A0006868C4F80E00A068C4F81200A089E08235
:1020B000A0683060A089B080D9F80010A160B9F89C
:1020C0000400A081D9F80010C6F80610B9F8040081
:1020D0007081AA6941462846904703E06946284630
:1020E000FFF77BFD404601F068FCBDE8F88F00007B
:1020F00070B50A4D0646002404EB840005EB800011
:10210000817C29B18068B04202D1204600F076F887
:10211000641CE4B20A2CEFD370BD0000C48E002012
:102120002DE9FC5F0A27054600208B46DFF8C890A2
:102130003E46394601903C468646009000EB800AB8
:1021400009EB8A030A299A7C0AD0BAB165B1D5F89D
:1021500000C0D3F80480C44506D140B2BDE8FC9F5E
:10216000002AF3D141B209E0012A15D0022A05D391
:10217000DA7C009B9A4201D346B20092401CC0B266
:102180000A28DBD35FEA8B724FF0FF30E6D40A29CE
:1021900012D014DACCB220E059F82A20002ADA7CD6
:1021A00004D07245EAD344B29646E7E7019B9A42CF
:1021B000E4D347B20192E1E75FEACB71CED00A2EB9
:1021C00001DAF4B206E00A2F01DAFCB202E00A2CCE
:1021D000C4DAE4B2204600F011F82DB104EB840219
:1021E00009EB82002968416004EB840209EB82005C
:1021F0000021C17460B2B1E7C48E002070B5074CF5
:1022000000EB8005002654F8250018B101F0D5FB3D
:1022100044F8256004EB8500867470BDC48E0020F0
:102220002DE9FC410E46044615460E21304601F0CC
:10223000ECFB18B16FF00100BDE8FC812146286875
:1022400000F00AFB08B1344B3CE02868C0F30311EE
:102250000E2922D0A168636800EA01020B409A426D
:102260000BD080B2A0F57E41A93906D014F10C0F35
:102270002FD0E06868B304F10C05284A2849137888
:1022800003EB830001EB8000877C022F24D32F68AF
:102290004068874220D11A462EE001208DF80000C8
:1022A00000208DF801005E208DF8020068786B46F2
:1022B00000F07F008DF80300A8788DF80400E8781E
:1022C0008DF8050004F12B023146204600F024F978
:1022D000B2E76FF00300AFE75FF0000000EB8003B0
:1022E00001EB83039F7C022F0BD32F685B689F4217
:1022F00007D1C0B2107002463146204600F012F8F5
:102300009AE7401C40B20A28E8DB324629462046BC
:1023100000F02AF890E70000F4560008A40000201E
:10232000C48E002070B505460E460E4802EB8201B1
:1023300000EB8104A07C022809D1E07CE42806D3CC
:10234000211D284600F0D6F808B90320A07404F136
:102350000C0305F12B0231462846BDE8704000F021
:10236000DBB80000C48E00202DE9F74F82B088460C
:1023700002984FF0FF3B2B300090086814465E46F1
:10238000029900F069FAD8B9D8F80000C0F3031137
:102390000E2915D0B8F1000F12D088B101214046A6
:1023A000FFF7BEFE07000DD4DFF8A0A007EB8709FA
:1023B0000AEB8905A87C40B1012808D03CB10DE0AA
:1023C0006FF00D0005B0BDE8F08F0120A874414604
:1023D000029800F08FF80646002CF3D0A87CD04677
:1023E00002280AD31A4805F10C0321460770009A07
:1023F000029800F091F8064626E0012824D12046F4
:10240000017B01290ED001890022032001F0ACF9E3
:10241000050018D0214601F083FA58B1284601F092
:10242000CCFA10E000680028EAD12546204601F0E9
:1024300043FB45B158F8290008B101F0BEFA48F84D
:102440002950002600E05E463046BBE7C48E0020DF
:10245000A40000202DE9F05F9046894682461F4681
:1024600000222A210320DDF82CB001F07DF90600BE
:102470003DD075680D9805F10E0400F009FFE0806D
:102480003868A060B888A081DBF80010C4F812108A
:10249000BBF80400E082D8F800102960B8F8040006
:1024A000A880D9F80010C5F80610B9F804006881B2
:1024B0000A9831460068C4F80E000C980068A061C4
:1024C0004FF4807020800820608006202071042056
:1024D00060714FF4C160A881DAF818205046904727
:1024E0000446304601F069FA2046BDE8F09F4FF0FF
:1024F000FF30FAE71FB50123064C021DCDE9021398
:10250000CDE9002400F12B031946A21FFFF7A2FF1B
:1025100004B010BDFA56000830B44C681D68256040
:102520009B88A3801368C4F80630928862810822D1
:10253000A281826930BC10472DE9F0411F46164642
:102540000D00044630D0286870B3214600F084F9AD
:1025500050BB2878C0F303100E2825D039462846F2
:10256000FFF7DEFD00281DDB00EB80011048022391
:1025700000EB8102937494603368D360B388138254
:102580000023D37450F821505DB140F82130334618
:1025900004F12B0229462046FFF7BEFF284601F032
:1025A0000CFA0020BDE8F0816FF00D00FAE70000A2
:1025B000C48E002070B5044640890D460E283AD9D5
:1025C000606801788689CA0714D0012905D00622DF
:1025D0001B49FDF720FE48B10CE0417851B98078E5
:1025E0005E2807D1607B40F0100002E0607B40F085
:1025F00008006073082E03D0B6F5C16F1BD10EE042
:1026000095F83100800616D56FF00D01204601F0D7
:10261000FCF980B92946204600F0ECF909E095F86C
:102620003100800607D5224605F12B012846FFF729
:10263000F7FC002070BD204601F0BFF9F9E700006B
:10264000F456000810B5732180F83210742180F818
:102650003310044941610449816100F0DDFC002030
:1026600010BD0000212200084931000870B5054660
:1026700000F012FD040009D02A69294690470500A0
:1026800002D0204601F099F9284670BD4FF0FF3086
:1026900070BD0A46032100F07FB800002DE9FE4F0F
:1026A000456804468A46287800074FEA9068C8F1D2
:1026B00000010F46204601F0A8F9002862D12089C8
:1026C00004285FD36068007800285BD0082859D1BF
:1026D0002F4901260868C0F303120E2A00D10026F4
:1026E0008946514600F0B8F8E8BBE6B320890828CF
:1026F00048D3204600F08CF8A8BB2221204601F0E8
:1027000084F9D0B14146204601F07FF958BB2189B8
:102710000022022001F028F8060033D0214601F003
:10272000FFF800BB39463046756801F06EF9D0B944
:10273000204601F042F9344605E06FF021012046C1
:1027400001F063F978B96068D9F80010E9601149BF
:1027500000260968296106704680FF2028726E8174
:102760004146204600E00DE001F04FF950B901214B
:10277000CDE90061FF230022CDF808A004492046DE
:1027800000F010FA2046BDE8FE4F01F016B9000037
:1027900098000020940000202DE9FE4391460E464B
:1027A000074600222421012000F0DEFF050023D08F
:1027B0006C68D7F804801C22267084F801900026EB
:1027C000A680E680686879680830FDF7F9FC6680C5
:1027D0006989204600F016F86080D8F80C00029055
:1027E0000120CDE90060FF2302AA0021284600F065
:1027F000BFF9284601F0E1F8BDE8FE830A460B2147
:10280000FFF7CABF10B500F049FDC04380B210BD4C
:1028100070B500242646054613E06989686800F013
:102820003DFD2044010C11FA80F4A87AC00707D0BE
:10283000C6F10100C6B2E0B2C4F3072141EA0024A8
:102840002D68002DE9D126B1E0B2C4F3072141EA99
:102850000024E04380B270BD421C12D088B191F8D0
:10286000312092070BD54B68834208D0896800EA73
:1028700001020B409A4202D10143491C01D00020C1
:1028800070470120704700002DE9F74F8AB00446D9
:102890000B9814270025068D60680690C08800F00C
:1028A000FBFCC0F30C0B00F4005008902089143896
:1028B000143E1FFA80F8F01706EB5070C0F3CF00FB
:1028C0000796059082E00799884501DC012000E029
:1028D0000020089ACBF30C0111430491D8B1404673
:1028E00080B2039000221421022000F03DFF5FEA35
:1028F000000916D01422D9F804000699FDF760FCEF
:10290000D9F8040002906068384460606089C01B98
:102910006081039E31E041F4005004900598C000AE
:10292000DEE74FF0FF300DB0BDE8F08F6589B542AE
:1029300000D9354605B3062000F03EFE07004BD017
:102940006068CDE900053B4602222946032000F0DD
:1029500097FF5FEA000A43D0204601F0ADF8224815
:10296000C7E904045146484600F0B4FF701B060452
:10297000360C04D02468D9E72468002ED6D12F461F
:10298000049800F085FC0299C8800398143080B246
:1029900000F07EFC029948800298002141811421B8
:1029A0000298FFF72FFF029948810B9849460C9A2D
:1029B00043699847484601F000F80398A8EB0000E7
:1029C0001FFA80F8059858441FFA80FBB8F1000FF1
:1029D0007FF479AF0020A6E7484600F0EEFFA0E7BD
:1029E000384600F003F8F7E70130000801460620FA
:1029F00000F0AABD2DE9F05F456806460F4628782D
:102A00000421B1EB101F0FD100F00F004FF6FF7142
:102A100001EA8009688800F03FFC728901464A4556
:102A200002D33089884203D2304600F0C6FF63E00B
:102A3000304601F01AF84C482969A0F1040A0160F7
:102A4000EA684FF001083C468346CAF8002000BF00
:102A500094F83100C0070ED0201D0CD0606850B132
:102A6000DBF80020824204D021461046FFF7F4FE36
:102A700008B174B116E0B8F1000F04D03B484FF034
:102A80000008046800E02468BC4200D12468002CDF
:102A9000DED1687A112805D105EB09004088B0F530
:102AA000884F27D0DAF8002062B1D0463946104668
:102AB000FFF7D2FE0028B7D198F80000C0F303104A
:102AC0000E28B1D0002CAFD0E88830F0C00005D07F
:102AD000304600F0BBF806000ED07568DFF888803D
:102AE0003946A8F110083046C8E9017501F03CF8F4
:102AF00028B12FE03C46E5E70020BDE8F09F687A6A
:102B0000012815D006280ED0112807D05C4639467A
:102B1000DBF80000FFF7A0FE78B118E03946304638
:102B200002F058FC16E03946304601F06BFA11E02D
:102B300039463046FFF7B2FD0CE02078C0F30310B1
:102B40000E2804D0022130467560FFF7A2FD304602
:102B500000F033FF0020C8F80400C8F80800CAF8E5
:102B60000000CBF80000C7E7980000203C000020E0
:102B70002DE9FE438146DDE90A541F461646884684
:102B8000104600F01DFA50B10095CDE901403B46DA
:102B900032464146484600F005F8BDE8FE836FF036
:102BA0000300FAE72DE9F84F9846DDE90BA6DDF8BA
:102BB00028B017008946054631D0142100F025FFC2
:102BC00018B16FF00100BDE8F88F6C6884F80880D8
:102BD00084F809A0386820614520207084F801B08D
:102BE000288900F055FBDFF8608060804FF0000A14
:102BF000A4F806A0B8F8000000F04AFBA080B8F8DE
:102C00000000401CA8F80000B9F1000F02D0D9F86C
:102C1000000000B97068E060A4F80AA003E06868EA
:102C20006F4600690090308D40B12989814205D9F5
:102C30003A4631462846FFF727FEC4E773693A460D
:102C4000294630469847BEE7880000202DE9F14F1D
:102C50004FF0000A00984568287800F00F0005281A
:102C60007ED1E88800F018FBC0044FEA104968885C
:102C700000F012FB297801F00F01494200EB8100BE
:102C80001FFA80F8009800F042FE524E0746308846
:102C900038440A2809D93946284600F05BF900284B
:102CA0005ED0308838440A285AD84FF0000B746838
:102CB0000DE06069E968884207D1A0692969884206
:102CC00003D1A089A988884204D0A2462468002C98
:102CD000EFD106E02CB1E88800F0DEFAC0041DD088
:102CE00027E0052000F068FC04000AD13946284698
:102CF00000F030F9B84268DB052000F05DFC04000C
:102D000063D02021FDF775FA0320E077706820601A
:102D10001422294604F10800746008E0E08900F0FC
:102D2000BBFAC00405D01422294604F10800FDF7BF
:102D300047FA308838443080A879800606D4A07FCE
:102D400040F00100A07709EB0800A083204600991D
:102D500000F042F8002836D0A08B1430A08300E0A9
:102D600033E06068142204F10801456828462F68A2
:102D7000FDF726FAA08B00F08BFA6880A5F806B064
:102D8000A5F80AB014212846FFF73CFD68816FF0D2
:102D90001309D4F8048009E0494638467D6800F0FC
:102DA00034FE3946404600F095FD2F68002FF3D1E0
:102DB0005146204600F084F8404600F0A8FD3188D6
:102DC000081A30804046BDE8F88F009800F0F5FD05
:102DD0000020F8E79C0000202DE9F047D1F804809E
:102DE00007460D4600240126B8F8020000F054FA08
:102DF000014698F8000000F00F00404201EB800906
:102E0000B8F8060000F048FAC004020C6868002117
:102E1000016002EB090182801FFA81F8A0F80680A8
:102E20007B681DE05968B1F804C062450DD20360AB
:102E300044B1B4F806C0624534D38988884531D896
:102E4000256000E07D606BB115E02BD0CB889A4205
:102E500028D31CB1E388634500D000260B680C46DC
:102E6000002BDFD134B12560E1888288914202D005
:102E7000002600E07D60B97FC90711D05EB1796896
:102E80004968898831B9016829B14968C0888A8848
:102E9000904203D000263046BDE8F0870846F2E7AE
:102EA0000020F9E7284600F032FD01460348028879
:102EB000511A0180284600F080FDF1E79C000020B7
:102EC000074B30B40A465C680168844201D15960FE
:102ED00000E01160014630BC052000F035BB000069
:102EE0009C0000202DE9F041456806468846686848
:102EF0000024818891B900687060142206F10801ED
:102F00006868FDF75DF901212846FFF777FC284640
:102F100000F0FDFC0446284600F04FFD75680AE00D
:102F200068682F460568384600F0F1FC204484B2FA
:102F3000384600F042FD002DF2D141463046FFF701
:102F4000BFFF03480188091B01802046BDE8F081CE
:102F50009C0000202DE9F041184F884606460024C9
:102F600000221146154678681AE04369D6F80CC06D
:102F7000634509D18369D6F810C0634504D18389BC
:102F8000B6F804C0634507D06D1C22B1C37F92F828
:102F90001FC0634500D80246036803B101461846C6
:102FA0000028E2D11AB11046FFF79CFF04444445C3
:102FB00001DA012DD4DC2046BDE8F0819C00002020
:102FC00010B502460C480AE090F83110C90706D047
:102FD0008168136844680B400C40A3420AD0006823
:102FE0000028F1D10548006818B190F83110C907E0
:102FF00000D1002010BD00003C0000204000002057
:1030000010B50446406908B100F0D7FC2046BDE881
:103010001040FFF7EBBC000070B50446062084F8B2
:103020002A00022084F82B00002084F82C0084F869
:103030002D0084F82E0084F82F0084F8300004F16D
:103040002B01FDF72FFD40F2DC502085222084F873
:10305000310004220C490D48FDF714FB04220C49F1
:103060000C48FDF7D5FA094D00244FF4400600BF87
:1030700005EB44103146FDF729FB641C042CF7DBFB
:10308000BDE87040FDF71ABE8CA800203C900020DF
:10309000BC900020BC8F00202DE9FF5F002401A818
:1030A000FDF7A0FB01AB93E807008946009281B2CF
:1030B0000322104600F058FB019030B3DDE9008593
:1030C00040F2F45B6E89002710E000BFA4F2F452D6
:1030D0005242FDF775F8D8F80C008046D0F80890F9
:1030E0003F1BAAF2F456002407F2F457686806EB77
:1030F000040ADA4509EB04013844E7D83246FDF703
:103100005FF82D683444002DDCD100210C4A4FF0CB
:103110000043009802E00360C068491C1468A4687A
:103120008C42F8D810680021816006484269120676
:1031300002D5802242618160019804B0BDE8F09F11
:10314000C0000020009002402DE9F04FADF2347D28
:103150000D4628223EA10DF20C70FDF731F84648CD
:103160004FF0000B5C460668D6F808A038E03068DF
:10317000002802DA6FF001045DE06F894FF000086B
:103180001BE000BFA4F2F4525242FDF719F8F668B2
:103190003068002802DA6FF007044CE0D6F808A087
:1031A000A8EB040000F2F458ABEB040000F2F4507A
:1031B000A9F2F4571FFA80FB002407EB040940F240
:1031C000F451894569680AEB04004144DAD83A466B
:1031D000FCF7F6FF0BEB07002D683C441FFA80FB61
:1031E000002DC4D1254E4FF4804529463046FDF7C9
:1031F000D3FF5846FDF7D6FC5A4601A95046FEF7C4
:10320000E1F884B2FEF7EAFA1D4A1E4F01AB5106FF
:1032100038460094FEF734F8194801228021001F37
:10322000FEF76CFB21463846FEF764F80024294679
:103230003046FDF7B3FF14484169890603D52021C4
:103240004161002141600DF2347D2046BDE8F08FE0
:10325000414C49454E54454B204578706C6F726522
:10326000722053544D3332463420444D4120B4AE85
:10327000BFDACAB5D1E90000B80000200010024052
:1032800004440040A06002400090024000BA704731
:1032900040BA704700BA704740BA704718B500226C
:1032A000ADF8002010F001030CD000290ADD10F861
:1032B000014B8DF80140491E04E000BF30F8024B7D
:1032C000891E22440129F9DC002902DD00788DF8ED
:1032D0000000BDF800001044010C11FA80F0010C50
:1032E00011FA80F023B1C1B2C0F3072040EA0120F7
:1032F00080B218BD4FF46165002429461848FCF7D8
:1033000078FF29461748FCF774FF174841F64C51DF
:103310008068FCF7B6FF4FF44070FEF731F8FDF718
:10332000F7F8FDF765FFFDF73DFFFEF757FAFEF7EB
:10333000BBF94FF400510D48FDF72EFF0C4D00BFB7
:10334000FDF720F908B1FDF793FFFEF789F9AC42CC
:1033500001DA641CF4E701F0EFFF0024F0E700005D
:10336000C4000020CC070020000000200010024014
:1033700000093D00002810D008490A6890420CD38B
:103380004A68904209D2002200F8042C8A68083862
:10339000904200D2886000F0BDBB70472C00002036
:1033A00010B50A480A4A20F003004FF42053106079
:1033B000002103804180017100F5205101245160FA
:1033C0000C710B804B80906010BD0000832D00209D
:1033D0002C000020F0B5002846D04FF6FC71C01C30
:1033E00000EA01054FF4205C0C2D01D20C2501E010
:1033F00065453ED8204CC5F52056A3682268981A2A
:1034000081B234E0501807797FBB07887F1A083FE4
:10341000AF422BD3068805F1140E761A0127083E19
:10342000764514D30D440835AEB295194FF0000E11
:1034300085F804E0B0F800E0A5F800E069800680B7
:1034400007712988614503D0951C4E5300E0077130
:10345000984208D1616801E01B8813441D790DB1C1
:103460008B42F9D1A3600830F0BDFFE7515A8E427C
:10347000C8DC0020F8E700002C0000202DE9F04710
:103480004FF6FC72C91C11404FF420550C2901D293
:103490000C2101E0A94212D82A4E3468A04210D370
:1034A000726890420DD2A0F10802131B30F808CCCC
:1034B0009BB2ACEB0307083FBFB2B94203D94FF050
:1034C0000000BDE8F087FCD0B1461E4EA4444FF08A
:1034D000000A9CF804803668B8F1000F06F1020675
:1034E00018D001F1140CBC45EBD8194408318FB247
:1034F000E119D9F80840A14201D2C9F8081081F8B1
:1035000004A014880C804B8017800988A942D8D069
:103510008F53D6E719440831D9F80880BCF80070F9
:1035200089B2E04503D104EB0108C9F808800C44D6
:1035300084F804A02780638011802288AA42C0D02A
:103540009153BEE72C000020002905D0034A52F811
:1035500020300B6042F82010704700009455002086
:10356000F0B50020401C80B20928FBD31048104B56
:1035700020F0030200200F4D0746273B05F11204FF
:1035800043F82070002109E053F82060166043F8EA
:10359000202035F81060491C324489B234F810609C
:1035A0008E42F1D8401C80B20928E9D3F0BD00005A
:1035B000BB550020CA5600080146092801D3002047
:1035C0007047044A52F821000028F9D0036842F8F5
:1035D00021307047945500202DE9F041044606A89B
:1035E00090E8E00000206060A060E06084F83100B6
:1035F0006062C4E907050A4D287884F83400401C4D
:1036000028702046276100F00DF82046B04710B121
:103610000020BDE8F0816868206020466C60F8E713
:103620003800002070B51D461646044600F022F80A
:103630003146204600F084F829462046BDE8704017
:1036400000F013B80149886070470000380000207E
:1036500090F83110CA0707D021F0010180F831102D
:10366000890601D5FEF744BD704701B10968C16004
:103670007047000070B50C00054628D020686968C6
:1036800088421ED01348006809E001686A689142C8
:1036900004D1C66800F0E8FA304600E0C0680028AF
:1036A000F3D10D48006809E007D0016829B16A68C4
:1036B000914202D144B121680160C0680028F3D171
:1036C0002CB12068686070BD4FF00001F4E74FF046
:1036D0000000F7E7600000205C000020002800D018
:1036E000C161704790F83110CA0607D521F010016A
:1036F00080F83110C169002900D00847704710B523
:10370000044690F83100C10619D440F0100084F846
:103710003100606A10B12046FEF7A6FB94F8310034
:10372000C10705D0800603D5211D2046FEF7E2FE25
:10373000E169002903D02046BDE81040084710BDCC
:1037400001B109688160704790F83110CA070AD149
:1037500041F0010180F83110CA0604D5890602D56E
:10376000011DFEF7C7BE70472DE9F05F16460D46F6
:1037700030B1012806D0022806D003287ED105E00A
:10378000362704E0222702E00E2700E000274FF052
:10379000010A4FF00008EEB3012E5CD0022E5AD081
:1037A000032E6BD10820FFF707FF041E64D0E01939
:1037B0001330267320F00300C4E90080FF1C27F0BB
:1037C0000300C0F5FA7041462581A84200DD284675
:1037D00060815746A4F80EA0A1462D1A4FF4FA7B3B
:1037E000884616E00820FFF7E7FEB8B1067380F8B8
:1037F0000D80C0F80080A9B2C9F8000001815945C8
:1038000000D35946418100F110024260C7816D1A10
:10381000814600E006E0002DE4DC28E0204600F0D0
:10382000CCF82BE007F1130020F00301E81C20F096
:103830000300084480B2FFF7CDFD04001ED0E0195C
:10384000133020F00300606025816581C4F800809A
:1038500084F80C800BE00720FFF7AEFE041E0BD0AF
:10386000C4F8048025816581C4F800802673A4F81B
:103870000EA084F80D802046BDE8F09F0020FBE7F5
:1038800070B5DDE9044530B1012806D0022806D024
:1038900003280DD105E0362004E0222002E00E20AE
:1038A00000E00020C01C20F003004618AE4201D901
:1038B000002070BD00251D6014B12044586000E058
:1038C0005D6002205873198159811A730120D881D3
:1038D000184670BD10B500280FD000290DD004E0A7
:1038E00003890C892344038110460268002AF7D11A
:1038F00002890B891A440281016010BD10B50C4683
:10390000FFF7E8FF2046BDE8104000F0D5B80021E1
:1039100002E0491C0068C9B20028FAD10846704785
:103920002DE9F0474FF000070C4605003E466FF0CA
:103930000D0932D07CB32889218988422DD36FF0BC
:10394000050A6889C11B6089801B814201DB80B246
:1039500000E088B280466068424681196868384451
:10396000FCF72EFC07EB080087B206EB080086B2D6
:103970006089B04201D8246800266889B84202D123
:103980002D68002745B15CB160892189884207D143
:10399000206860B904E000E06CB14846BDE8F087FB
:1039A0003DB168892989884203D1286808B1504609
:1039B000F4E7002CC5D10020F0E770B500281BD03B
:1039C0000024C189491E0904090CC18113D1427B1D
:1039D000017B0568920702D50169884707E0032942
:1039E0000BD001290CD002290AD0FFF7C3FC641CBC
:1039F000E4B22800E5D1204670BD0146082001E070
:103A000001460720FFF7A0FDF1E710B541B138B13D
:103A1000002907DA4A4293B242899A4223D302E04C
:103A2000002010BD8BB2027B446832B1032A04D05F
:103A3000022A0AD0012A08D015E0621A00F1100308
:103A400042609A4208D244600DE000290BDA4289B4
:103A50009A4208D3621A426042890A44428102892A
:103A600011440181DCE7012010BD70B502898A4252
:103A700021D98A1A0D46044605E0281A85B2208904
:103A80001044208124686089A842F6D3207B50B975
:103A90006089A84207D0A088001B284481B2204634
:103AA000FFF7ECFC044665812581206808B1FFF72B
:103AB00084FF0020206070BD002802D0C189491C0D
:103AC000C18170472DE9F04100278846144600283F
:103AD00007D0B8F1000F1AD00189A14203D26FF0CC
:103AE0000D00BDE8F08105460FE068892646B0422A
:103AF00000D2064608EB070132466868FCF760FB17
:103B0000A01B84B2B8192D6887B2002CEDD100201B
:103B1000E7E7000030B5134903880A681344941C92
:103B200098420DD01D795DB94D68AB4208D08D68C3
:103B30009D4200D188601D8805801B88851A1D5311
:103B40004388134483420BD01D79002D08D18D6822
:103B5000854200D18B60018819800088991A015331
:103B600030BD00002C0000202DE9F0478146406860
:103B7000DFF85C800026477A3546D8F8004022E01E
:103B8000207CB8421CD12CB1206818B111490968B9
:103B9000884215D1D4F814C0BCF1000F10D00E4BE0
:103BA0004A462146A069E04750B14FF0000901267E
:103BB00035B1E068E860D8F80010E160C8F800406E
:103BC0002546E4680EB9002CDAD13046BDE8F0870E
:103BD0004400002098000020940000202DE9FC47BC
:103BE0000446007E0F460A282FD021461D48D4F8EF
:103BF0005090D4F828802669D4F8885000F0B8FD99
:103C00001849012018390870206F08B101F07FFAB7
:103C1000E06E08B101F07BFA4FB1A18B608BCDE96A
:103C20000001231D22464146484601F027FA21465D
:103C30000220FFF789FC002D12D002B03046AC46BE
:103C4000BDE8F0476FF00901604706482146001DB6
:103C500000F08EFD2146BDE8FC470220FFF774BC52
:103C6000BDE8FC87600000200121FFF7B7BF00001E
:103C70002DE9F04105460220FFF79EFC374C060077
:103C800036D100221146E368E06906E0466A9E1BD1
:103C9000964201D332460146C0680028F6D111B1E0
:103CA0000846FFF7E1FF0220FFF786FC06001FD160
:103CB0007F2300221146D4F80CC0A0690DE0467E97
:103CC000AE4209D89E4207D8476AACEB0707974235
:103CD00002D33A4601463346C0680028EFD111B1FD
:103CE0000846FFF7C1FF0220FFF766FC060032D04E
:103CF0009421FCF77EFA757641F2D060A6F8660052
:103D00000023A6F868304010B085F0857372FF205C
:103D1000B0724FF40670F0860620A6F84400A6F8AC
:103D20004030A6F84200C01FB0860120A6F84C0023
:103D3000103600F063FBB0643064B063F064E06898
:103D40007061A0787074F3730548F0660548F067F9
:103D500086F88230103E3046BDE8F08148000020F1
:103D6000774F000800DD6D00017E012903D0817FBF
:103D700041F0100181770121AFF300802DE9FC476C
:103D80000446007E464D4FF00009012791B30428F8
:103D900001D0072837D1616F21B9A18DA1F530621B
:103DA000683A30D0A18B608BCDE90001231D2246FB
:103DB000A16A206D01F062F9204600F0BBFCA86901
:103DC000A04202D1C068A86107E0286228B1C0689B
:103DD000A042FAD1296AE068C860C4F80C902F703C
:103DE000207E042807D021460220FFF7ADFB0020EB
:103DF000BDE8FC8707E00A202076E869E060EC6116
:103E000001F0D4F9F3E74FF00508082840D2DFE8C5
:103E100000F0041A252D2D3F3F35608B002678B128
:103E20002869A04202D1C068286107E0286228B151
:103E3000C068A042FAD1296AE068C860C4F80C9052
:103E40002146022007E0164800262146143000F0E3
:103E50008FFC21460320FFF777FB1EE01048002669
:103E60002146183000F084FC2F70E9E7204601F06D
:103E70007BF9060009D184F8188006E0204601F09D
:103E800073F9060001D10920207634B116B104E09F
:103E9000002602E0204600F0B9FA3046A8E700000C
:103EA000480000202DE9F0478046089E9A4691463A
:103EB0000D46F00700D00420B10701D50C2100E029
:103EC000002147180420FFF777FB040011D0A672E9
:103ED0000026C4E9006528891421C01B20812846DA
:103EE000FFF793FD48B1204601F003F90020BDE83B
:103EF000F0872846FFF761FDF8E760684068E060FA
:103F0000B8F81A00FFF7C4F9E1680880B8F81C0097
:103F1000FFF7BEF9E16848805046FFF7B7F9E1685E
:103F20004860B808000300F5A04040EA0900FFF728
:103F3000AFF9E1688881E06846822046D7E710B58E
:103F400004460846FFF73CF838B1008D28B1283800
:103F500080B2844200D220460446204610BDF8B507
:103F600004460026B0F86800771E0D46082804D3E2
:103F7000A07F40F08000A0771FE0A80700D50126B1
:103F8000F00700D00420B10701D50C2100E000218A
:103F90000144B4F8660080B100221046FFF7E4FB4C
:103FA0000100E5D000962A462046E36DFFF77AFF30
:103FB0000100DDD0E06E10B104E03846F8BDE166E6
:103FC00004E010460268002AFBD101600020A4F83A
:103FD0006A00A80707D0E06D401CE065B4F86600F1
:103FE000401EA4F86600E80703D0A07F40F0200040
:103FF000A0774868FFF78BFC34F8681F08442080DE
:104000000020F8BD2DE9FC470746BC4D40680C4632
:10401000A860017801F00F0100EB81006860880062
:1040200041423846FFF7F1FC00287DD13889142839
:104030007AD3B34E21463068FEF70EFC0028F4D147
:104040003078C0F303100E286ED068688089FFF7BF
:1040500023F9000B800041423846FFF7D6FC0028C8
:10406000E3D168680088FFF717F9014668680180A6
:104070004088FFF711F90146686841804068FFF702
:1040800009F9014668684160E9608068FFF702F954
:104090000146686881602961C089FFF7FDF8014623
:1040A0006868C1818089FFF7F7F800F03F00287049
:1040B0003989820700D0012211446980DFF844C2A7
:1040C00091490022DCF80030D1F800A01C46696854
:1040D000D6F800903DE0A68BB1F80080464536D179
:1040E000668BB1F80280464531D1D4F80480D045C2
:1040F0002DD1D4F80080C84529D122B1E668D66018
:10410000E360CCF8004034B3DFF8009200260007EB
:10411000C9F800603B89A9F80830C9F80470C9F8EB
:104120000C106E616E7000E0E2E003D5787B40F029
:1041300001007873606FD8B3204600F0DFFC0A30CE
:1041400066D0606FA0B36888002861D13BE022464A
:10415000E468002CBFD16E48006811E0828B0B88A8
:104160009A420CD1428B4B889A4208D143685345FE
:1041700005D103684B4502D101F01AF8B8E0C068D8
:104180000028EBD1634C0022206803460DE000BFFD
:10419000B0F81AC04E88B44505D106684E4508D01F
:1041A000002804D03EB10246C0680028F0D18DE05E
:1041B00009E000287ED01AB1C168D160C3602060D8
:1041C00000F0AAF894E02046AC6100F0FDFA0A3055
:1041D0006ED068782F46010706D5D4F888207AB1CA
:1041E0006FF00A0120690AE0C00612D5A07FC00660
:1041F00006D4D4F888201AB16FF00B0120699047DB
:104200002146404800F0B4FA21460220FFF79CF90D
:104210004EE0B4F8642032B1A36F23B12146206987
:1042200098470A3044D0786908B3A17FC90605D5FC
:10423000FFF7C3FB2046FFF717FD39E0D4F87CC039
:10424000BCF1000F07D0D4F81080024600232146AD
:104250004046E04705E0002302462146184600F0AC
:104260008AFE10F10A0F23D008B178696067787868
:10427000800619D5606F20B1417B41F02001417368
:1042800012E0A08DA0F53061683901D0401CA085F6
:10429000D4F87CC0BCF1000F06D000231A4621469A
:1042A0002069E0470A3003D02046BE6100F0AEF836
:1042B000AE6100E00AE06E61D9F804004C460028C7
:1042C00002D0FFF77AFB6660BDE8FC878889FEF7BD
:1042D000E3FF40070CD468680B4B094A018840880B
:1042E000CDE900016988E8680144286900F0C6FE4C
:1042F0003846BDE8FC47FFF760BB00006C000020BB
:10430000980000206000002094000020B48E00205F
:10431000640000205C0000207CB5334D0646287800
:1043200041075FD4C1060DD56868304B304A01881B
:104330004088CDE900016988E8680144286900F0F7
:104340009DFE4FE080074DD5707EFFF791FC040085
:1043500040D0274800682060708B60832348006845
:10436000606069680888A08303202076E8680246B8
:10437000401CA0622063C889A4F86000C989A4F821
:104380006210A4F84E00521E6265306920617069A7
:104390006061307A00F08C00207216480168E1609C
:1043A000046000F003FF144901200870204600F06B
:1043B00081F9E08E211DFFF7C2FDE0861221204623
:1043C000FFF7CDFD050008D000212046FFF706FCD1
:1043D00028467CBD4FF0FF307CBD2046BDE87C40C8
:1043E00000F014B800207CBD6C0000209400002078
:1043F0009800002060000020480000200249D1E918
:104400000202104488607047480000202DE9F04700
:10441000044660480068A04202D10020BDE8F08751
:10442000B4F86010B4F84C00814200D208468146CE
:10443000A07FE56E80070FD54DB1E8684068FEF7B4
:1044400029FFA16C401A29890144494504D9204615
:10445000BDE8F04700F064BE266F4FF0000A0EB9C9
:1044600083E0064630680028FBD17EE0E86880895A
:10447000FEF712FF206FA8B1A17F11F0440F11D1F8
:10448000E06E28B102686AB90089E28E904209D2D2
:10449000B4F8660030B1B4F86800082802D211F010
:1044A000A00F6ED02868E066207E02280BD0102076
:1044B000FEF7EEFE0146E868828911438181A07F04
:1044C00020F00300A0772146284600F09BF8E8681A
:1044D0004068FEF7DFFE0746E8688089FEF7DCFEED
:1044E000800700D00120298938440844216D091A29
:1044F00000D52065E8688089FEF7CEFE800700D0F1
:1045000001202989C8422CD0C5F800A0206F68B1CD
:10451000E8684068FEF7BEFE0746F0684068FEF7B0
:10452000B9FE381A1AD504F1700003E0256716E0C9
:10453000D8F800008046006850B1C0684068FEF7B7
:10454000A9FE0746E8684068FEF7A4FE381AEFD4D3
:10455000D8F800002860C8F8005005E035602E4605
:1045600002E0284600F0C5FDE56E55B1E8684068F8
:10457000FEF790FEA16C401A2989014449457FF657
:1045800075AFE06E08B9A4F86AA0A07F20F08000A3
:10459000A07742E7840000202DE9F0410546881805
:1045A0000F46143081B2984600220120FFF7DCF854
:1045B000060023D0688B7468FEF76AFE2080A88B03
:1045C000FEF766FE6080C4F80480A86AFEF75EFE0F
:1045D000A060B808000300F5A04080B240F01000D1
:1045E000FEF756FEA081E88DFEF752FEE081002026
:1045F00020826082E98DA86A084428633046BDE8BD
:10460000F08100007CB505460C46886AFEF73EFE48
:10461000E9688860E08DFEF73BFEE968C881E18DBE
:10462000A06A08442063EE68A87A1436C00709D04F
:10463000211D40F2B450FFF782FC40F00170FEF7FC
:1046400025FE3060B4F934000026401C00D1A68657
:104650000CB1206830B9201DFEF7B2FC002825D02F
:1046600040682060A06B38B911480068A063E86812
:104670004068FEF70FFEE0636968A8898A88801A9F
:104680004A89121A4A8169680A89101A0881696878
:10469000E868221D4860E86806210682607ACDE954
:1046A0000001A37A21466868FEF762FA7CBD00002B
:1046B0005400002070B51E4E0546706800F11404C9
:1046C0008089FEF7E9FD0521B1EB103F1ED270682D
:1046D0008089FEF7E1FD6FF0040101EB1030090C59
:1046E00001EA8000002140F2B4520DE0635C002B2F
:1046F0000CD0012B0BD0022B04EB010309D05B780B
:10470000002B03D0194489B28142EFD370BD491CFC
:10471000F9E75E78042EF9D1091D8142F6D85B884D
:104720005BBA934200D803B91346EB86EBE700006F
:104730006C00002070B50446007E002816D00A28C0
:1047400014D0012812D0606F002510B1FFF735F9A1
:1047500065674FF0FF30A086E06E00F0D8FC206F58
:1047600000F0D5FCE5662567A4F86A5070BD00002E
:1047700070B50C460168A14202D1C96801600BE026
:10478000104806E0C968A14203D1006AE168C1602F
:1047900002E001620029F5D100252046E560FFF71F
:1047A000C9FF207E0A280AD0012808D0A07FC107AF
:1047B00005D040F00200A0772046FFF727FE2576BF
:1047C00070BD0000480000202DE9FC5FC34D044689
:1047D000287841071CD5207E022814D0A06AE968F9
:1047E0000A1A14D4A28D1044081A00280FDC687825
:1047F00040F008006870A07F20F00100A0776FF003
:104800000A00BDE8FC9F206D29698842EFD063E172
:10481000800709D5207E022806D0032804D0A07F77
:1048200040F00200A07757E1A07FC00602D4AC4858
:1048300000686062002084F892002046FFF73AFF8B
:10484000207EDFF8A0B2DFF8A082A84FA84E801E1D
:104850004FF001094FF00A0A0828D8D2DFE800F02B
:10486000046AB9BDF4B9F2F12878C106CFD5800742
:1048700054D5206FC0684068FEF70CFD2A69401CC3
:10488000904248D134F8660F401C24F83E09E8688D
:10489000411C21602262A1606968401ECA8922878A
:1048A000C9896187E062042004F8100C34F80E0F07
:1048B000A4F13201363CFFF742FB00EB80014FF6DA
:1048C000FF72E08602EA4101A4F84E10B4F84C10E1
:1048D000012900D1400024F84C0FA08B401EA0837A
:1048E000606A0168616200F004FC606A4C3C70B16F
:1048F0000020A08684F84600D4F88030002B8ED0AB
:1049000000222146206998470A302DD087E74FF0D2
:10491000FF30A086F0E72878C00684D56868754B1C
:10492000754A01884088CDE900016988E86801443A
:10493000286940E02878C10640D5A16C2869411A51
:1049400001292ED4216D411A00292ADC0420207669
:10495000636933B1002221462069984738B10A3093
:1049600002D02046FFF780F96FF0090049E7B4F85C
:104970004C60204600F0F6F8B4F8640010B1401E18
:10498000A4F86400E08E012E00D14000A4F84C0091
:104990006878800611D5A07F40F00200A07707203C
:1049A0004DE06968534B0A884988CDE900126A884E
:1049B000E9681144504A00F061FB8DE0800707D59B
:1049C000A06AE968401E884202D1204600F001FB3F
:1049D00082E0204600F0C6F8DAE7204600F0C2F890
:1049E0006878800628784FEAC06021D5002819DA57
:1049F000206D2969884215D1A07F40F00200A07780
:104A00002046FFF797FE3868A04202D1C0683860A0
:104A100048E03060F0B3C068A042FAD13168E06885
:104A2000C8603FE0A07F40F00200A077082006E0C9
:104A3000002851DA206D296988424DD10620207660
:104A40004AE03BE016E0FFE7204600F08BF868788C
:104A5000800641D5A07F40F00200A0772046FFF7F6
:104A600069FE3868A042D1D0306098B1C068A042D9
:104A7000FAD1D3E7204600F075F82878C0062BD588
:104A8000206D2969884227D12046FFF753FE3868F8
:104A9000A04200E006E0B9D0306018B1C068A04282
:104AA000FAD1BBE78BF8009084F818A0D8F8001072
:104AB000E160C8F8004000F079FB0DE0204600F00E
:104AC00051F82878C00607D5206D2969884203D19E
:104AD000687840F010006870002092E66C000020BA
:104AE00054000020480000206400002060000020E6
:104AF0006800002094000020980000202DE9F0417B
:104B0000456F044600206E7B6067E76F2FB100237E
:104B10002A4621462069B84705E000232A46214657
:104B2000184600F028FA6FF0090728B10A3016D0AD
:104B300065670020BDE8F081B006FAD5A08DA0F52C
:104B40003061683901D0401CA085E56F002DF0D0A0
:104B500000231A4621462069A8470A30E9D1384681
:104B6000E8E700002DE9F041FE4D04464FF0000655
:104B70002878C0067DD5B4F86030A16D676DE8680F
:104B80005A18B7EB000C0BD4874202D12F69CF1B08
:104B900006D42F69B94217D16968C989994213D9D6
:104BA0006B68D989A4F86010B4F86270DB899F4201
:104BB00001D2A4F8623060652869A06594F891007C
:104BC00061B108B184F89160A36C2969C81A002802
:104BD00036DCA4F86460688840B12EE00028F3D188
:104BE00084F89060012084F89100EDE7B4F86070DB
:104BF000A06D3844904220D1B4F9340000281CDB69
:104C00008B421AD194F84700411CC9B2814201D9A4
:104C100084F8471094F84700032809D9B4F84C00E9
:104C2000E18E014489B2814201D9A4F84C10A8E078
:104C300002D1204600F0F6F9A3E084F84760A0E036
:104C400001287AD4226D8A1A002A76DCA27F5307C3
:104C500006D522F00402A277B4F84E20A4F84C2026
:104C600084F84660B4F84220B4F9403002EBE30225
:104C700000E0C2E0A4F84420A4F86400B4F8662080
:104C80001044A4F8660084F84760A164207E0428DC
:104C900033D3B4F84C00B4F84E108842E18E04D2FD
:104CA000014489B2814207D827E0494391FBF0F1E2
:104CB000014489B2884220D2A4F84C101DE0386823
:104CC00020677868FEF723FEB4F8640050B1F868F6
:104CD0008089FEF7E1FAC00704D0B4F86400401EF2
:104CE000A4F864007868FEF712FEB4F86810081A99
:104CF000A4F86800384600F0FCF9206FC8B1C0681D
:104D00004068FEF7C7FA0746206FC0688089FEF743
:104D1000C3FA800700D001203844276F398908443E
:104D20002969401A0028CADD1FB1A686E67728E067
:104D300003E04FF0FF30A086F8E7A4F8646020E0BD
:104D40003868E06608B9A4F86A607868FEF7DFFDA5
:104D5000B4F8640050B1F8688089FEF79DFAC00786
:104D600004D0B4F86400401EA4F864007868FEF72C
:104D7000CEFDB4F86810081AA4F86800384600F0B0
:104D8000B8F9E06EB8B1C0684068FEF783FA07462C
:104D9000E06EC0688089FEF77FFA800700D00120AE
:104DA0003844E76E398901442869411A03D4216DDA
:104DB000401A0028C4DDA06BF8B1E16B2A69891A9A
:104DC0001BD569490988081AB4F94010A0EBE10025
:104DD00000B2014409B2A4F84010002801DA4042B0
:104DE00000B2B4F94220A0EBA2001044A4F84200A3
:104DF00000EBE100A4F84400A6636B88002B7DD093
:104E0000207E07287AD2A16AEA68584F881A0128BA
:104E100025D41344CB1A5B1C002B20DC7A68518903
:104E200081420ADA1189091A8BB203E01381568193
:104E30001268401A51898142F8DB404201B21046A3
:104E4000FEF7E3FDAA89A06A3989821A891A398195
:104E5000E860F9684860A16A401A07D570E0501A06
:104E600004D5A07F40F00200A07769E0A08D0A1869
:104E7000E868821A521C002A62DC814260D1F8681C
:104E80008089FEF709FA800700D00120398908449B
:104E900080B26880A18D81422CD2F8688089FEF7AB
:104EA000FBF9C0070DD0F8688089FEF7F5F900F02E
:104EB0003E00FEF7EDF9F9688A8922F47C5210432E
:104EC0008881A08D3881F8688089FEF7E5F9800730
:104ED00002D53889401E388139897868FEF7C5FDCA
:104EE000F8688089FEF7D8F9800700D00120398959
:104EF00008446880E96880B2014400E025E0A162CE
:104F0000A18D081AA085204600F088F978680189EB
:104F100009B168617E60F8688089FEF7BDF9C00755
:104F200003D0687840F020006870A07FC10702D0ED
:104F300020F0010014E040F00100A077BDE8F0810E
:104F40002046BDE8F04100F0EBB8A16AE868421ADB
:104F500005D4A28D1144401A401C0028EEDDA07F2C
:104F600006E000006C00002054000020B48E0020F9
:104F700040F00200E1E710B51400084606D0218990
:104F800000F00BF82046FEF718FD00E00BB1002002
:104F900010BDBDE81040FEF7E7BE10B50446808D99
:104FA000084480B240F66831A085884200D9A185C6
:104FB000204600F033F940F2DA21884208DBA07F76
:104FC00040F00200A0772046BDE81040FFF71EBA6F
:104FD00010BD2DE9F041066F0446002E20D0306848
:104FE00004F16C05206700E02D68286850B1C068A6
:104FF0004068FEF74FF90746F0684068FEF74AF947
:10500000381AF1D4286830602E603068002108B961
:10501000A4F86A1014F8460F401C04F80E09216029
:10502000BDE8F08110B50446006F002825D0A07FB0
:10503000400722D42046FFF7CCFFB4F84C10B4F858
:105040006000814201D9400800E04808A4F84E0001
:1050500081B2E08EB1EB400F05D24FF6FF7101EA4D
:105060004001A4F84E1089B200EB40000844A4F8B7
:105070004C00A07F40F00400A07710BD2DE9FC5F3C
:105080001746DDE90C9A884683461E460022142105
:105090000120FEF769FB050029D048466C68FEF741
:1050A000F7F820805046FEF7F3F860805846FEF788
:1050B000EDF860604046FEF7E9F8A06045F21400A4
:1050C000FEF7E6F8A08146F60B00E0810020208282
:1050D00060820621CDE90001FF2332463946284689
:1050E000FDF746FD2846BDE8FC5FFEF766BCBDE85F
:1050F000FC9F10B5040009D0606808B1FEF75DFCA4
:105100002146BDE810400420FEF71EBA10BD10B5C0
:1051100003E00468FFF7EDFF20460028F9D110BD39
:105120007CB504460025006DFEF7B0F8034600226A
:1051300029462046FFF730FA050012D0A07F06214D
:1051400020F00300A077607ACDE90001A37A221D48
:1051500021462846FDF70CFD2846FEF72EFC0020D0
:105160007CBD6FF001007CBD70B5C46E05460CB906
:1051700009E0044620680028FBD1E0688089FEF73A
:105180008BF8400705D02846BDE870400121FEF7A6
:10519000E6BE0120FEF77CF8E1688A891043888129
:1051A000A87F40F02000A877002070BD7047000065
:1051B0001CB5164C21784A0726D48A0715D5826A71
:1051C000E1688B1A16D4838D1A448A1A002A11DCDE
:1051D00060680F4B02884088CDE9000260880D4A64
:1051E00001442069FFF74AFF0EE0C90702D00A49CF
:1051F00009684162618839B1817F41F0020181779C
:10520000BDE81C40FFF702B900201CBD6C00002067
:1052100094000020980000205400002070B5858D77
:10522000846AC18E631940F2B456026BB14200D950
:1052300031461144591A02D4C585981A70BDA11A75
:10524000002901DD002100E0111BC185002070BD97
:105250002DE9F047234B00256FF007085C680FE04D
:10526000A04201D101250AE0668A964207D13CB3EB
:1052700027682FB321B30E6816B3B7422AD0E4686B
:10528000002CEDD101B10968016002BB5E6800220B
:105290004FF6FF774FF440494FF4804A1C88611C59
:1052A0001980BC4201D1A3F8009031461C8809E066
:1052B000B1F812C0A44504D1521C92B25245EDD3AC
:1052C00008E0C9680029F3D12204120C02D04282FE
:1052D0001DB105E04046BDE8F0875968C1605860DF
:1052E0000020F8E72400002070B50446408A1646E6
:1052F0000D4630B9214607220846FFF7A9FF0028CE
:1053000010D155B128686060A682207C094940F020
:10531000040020744868024606E00020F3E7844257
:1053200001D1002070BDC0680028F8D1E2604C6057
:10533000F7E700002400002038B500F007F9050069
:105340002BD018480090072269462846FFF7CCFF6B
:1053500020BB00221449284600F02AF913480268AD
:1053600013A11B48FCF766FB1948FAF74DFF81B201
:1053700003220020FEF7F8F904000FD01448FAF7D2
:1053800043FF82B212492046FEF79CFB2146284685
:1053900000F028F92046FEF710FB38BD284600F043
:1053A0000BF938BDC0A80171695500081C00002028
:1053B00073656E64696E672075647020636C6965DF
:1053C0006E74206D6573736167652025640000004D
:1053D0001C2D00202DE9F84F4768054602893878D2
:1053E0008A4600F00F00082101EB80018A4266D353
:1053F000800041422846FEF708FB00285FD1DFF815
:1054000040916C685146D9F80000FDF725FA0090EC
:105410002088FDF741FF06466088FDF73DFF002428
:105420000246442807D0DFF81CE100200146DEF8E0
:105430000440A3464FE0432E51D1DAF82400E8B3EC
:105440004068D8B3011D05D0416819B13E4A1268C1
:10545000914244D1044648E0638A934239D1009B8B
:1054600013B9C4B12368B3B1D4F800C0D9F800307F
:105470009C4510D0DDF80080B8F1000F29D054B160
:10548000BCF1000F07D0DAF808800CEA080C03EA38
:1054900008039C451DD119B9237C5B0700D4214624
:1054A000A38AB34215D1231D07D063682BB1DFF85F
:1054B00098C0DCF800C063450BD101E00FE03AE092
:1054C00028B1E268C260C4F80CB0CEF8044024B140
:1054D0000BE02046E468002CBED10C0005D1DAF8C0
:1054E0000410D9F80000814225D16FF00701284649
:1054F000FEF78BFAF8B94CB1A769E7B10096124BE9
:105500002A462146E069B847BDE8F88F009890B96F
:1055100099F80000C0F303100E280CD03878082149
:1055200000F00F0001EB80012846FEF76EFA032120
:105530002846FDF7AEF82846BDE8F84FFEF73DBA1D
:1055400098000020240000209400002010B50120C5
:10555000FEF732F8040004D02021FAF74AFEFF20BB
:10556000A072204610BD00002DE9F0410E4F0D46FF
:105570004FF48046144631463846FBF70DFE0B4883
:105580000168491C01602046FEF717FA4FF4967037
:10559000FAF750FF284600F00FF831463846BDE8CC
:1055A000F041FBF7F9BD0000001002401C00002094
:1055B000C0E906127047000009494A68824209D1D1
:1055C000D2684A6008E0D16819B1814201D1C1684E
:1055D000D1600A46002AF6D101460120FDF7B4BF8A
:1055E00024000020838A021DAFF30080F8B507462F
:1055F0001D460E4614461046FDF7E2FC38B10090F9
:105600002B4622463146384600F004F8F8BD6FF0CC
:105610000300F8BD2DE9FE4F9246428ADDF8309036
:1056200098460E46044622B90146FFF711FE0028AF
:1056300014D108213046FEF7E8F988B1002208218C
:105640000120FEF791F8050006D0308948B13146B7
:105650002846FEF753F904E04FF0FF30BDE8FE8F17
:105660003546608A6F68FDF713FE38804046FDF7C7
:105670000FFE78800020F8806CB1206858B1D9F80E
:10568000041088420AD0B54202D02846FEF795F9A8
:105690006FF00500E2E709F1040800E0A046288960
:1056A000FDF7F6FDB880617A11228DE80602A37A33
:1056B000524641462846FDF775FA0446B54202D0E7
:1056C0002846FEF77AF92046C8E71C00200094001F
:1056D0001C00100020001800100004020400060046
:1056E0000A0006000C0005000F0064001400000012
:1056F000FFFFFFFFFFFFFFFFFFFF000000000000B4
:105700002057000800000020C40000005C1A0008B8
:10571000E4570008C4000020A4C300006C1A00086D
:105720000000000000000000D40E00200000000077
:105730000000000000000000000000000000000069
:105740000000CDAB00C00000000000000000000021
:105750000000000000000000000000000000000049
:1057600000000000000000000000000000C0000079
:105770006E190000000000000000000000000000A2
:105780000000000000000000000000000000000019
:105790000000000000000000000000000000000009
:1057A00000000000000000000000000000000000F9
:1057B00000000000000000000000000000000000E9
:1057C00000000000000000000001020304010203C9
:1057D00004060708090000000000000000000000A7
:0457E00000000000C5
:040000050800018965
:00000001FF
